:020000040800F2
:10000000405B0020D50A00086D0500086F05000858
:100010007105000873050008750500080000000060
:10002000000000000000000000000000E9010008DE
:1000300077050008000000002D020008E90800080C
:10004000EF0A0008EF0A0008EF0A0008EF0A0008AC
:10005000EF0A0008EF0A0008EF0A0008EF0A00089C
:10006000EF0A0008EF0A0008EF0A0008EF0A00088C
:10007000EF0A0008EF0A0008EF0A0008EF0A00087C
:10008000EF0A0008EF0A0008EF0A0008EF0A00086C
:10009000EF0A0008EF0A0008EF0A0008EF0A00085C
:1000A000EF0A0008EF0A0008EF0A0008EF0A00084C
:1000B000EF0A0008EF0A0008EF0A0008EF0A00083C
:1000C000EF0A0008EF0A0008EF0A0008EF0A00082C
:1000D000EF0A00086D0A0008EF0A0008EF0A00089E
:1000E000EF0A0008EF0A0008EF0A0008EF0A00080C
:1000F000EF0A0008EF0A0008EF0A0008EF0A0008FC
:10010000EF0A0008EF0A0008EF0A0008EF0A0008EB
:10011000EF0A0008EF0A0008EF0A0008EF0A0008DB
:10012000EF0A0008EF0A0008EF0A0008EF0A0008CB
:1001300000F002F800F048F80AA090E8000C8244B1
:100140008344AAF10107DA4501D100F03DF8AFF28E
:10015000090EBAE80F0013F0010F18BFFB1A43F0A5
:1001600001031847843F0000A43F0000103A24BF59
:1001700078C878C1FAD8520724BF30C830C144BF0C
:1001800004680C607047000000230024002500264E
:10019000103A28BF78C1FBD8520728BF30C148BFEA
:1001A0000B607047642903F08185752903F07E8513
:1001B000632903F0CC86732903F0D18600207047B1
:1001C0001FB51FBD10B510BD03F05FFF1146FFF74F
:1001D000F7FF00F03EF903F07DFF03B4FFF7F2FFF5
:1001E00003BC00F0EDFB0000224B19680868B0E882
:1001F000F00F80F30988BFF36F8F4FF0000080F39A
:1002000011884EF00D0E704700000000064800688F
:10021000006880F3088862B661B6BFF34F8FBFF302
:100220006F8F00DF00BF00BF08ED00E0EFF3098033
:10023000BFF36F8F0F4B1A6820E9F00F106008B5FD
:100240004FF0500080F31188BFF34F8FBFF36F8FD3
:1002500002F062F94FF0000080F31188BDE8084019
:1002600019680868B0E8F00F80F30988BFF36F8F52
:10027000704700BF54000020EFF305807047000076
:1002800008B500208DF800000221824800F047FDEB
:1002900000280DD180484069002809D000230A2297
:1002A000694601F005FA012802D07CA003F080FC29
:1002B00008BD08B5784E6D464FF47A7700242919A9
:1002C00000230A22B06901F0F8FA641C022CF6DB64
:1002D00000230A22A91C706901F0EFFA9DF8023090
:1002E0009DF801209DF8001077A003F061FC3846CE
:1002F00002F046F8E2E708B5674C7D4F41F28838D6
:1003000000254FF47A764146012002F063FD012872
:10031000F9D1002300961A460321E06902F0CEFFCE
:10032000A06802F023F9606802F020F9206902F069
:100330001DF9C7F89451E6E708B5574E6D464FF4DE
:100340007A77691C684600F0A2FA00242919002374
:100350000A22B06901F0ACF9012802D065A003F0CF
:1003600027FC641C022CF1DB384602F009F8E8E7B0
:1003700008B5002402F035FA0246474D4FF47A7072
:10038000009000230121E86902F098FF414E02210C
:10039000304600F0C4FC0128F9D1002CF7D100232D
:1003A00002220121E86802F085FD0124EFE71CB577
:1003B00003F066FA38490220091D0023CDE9000147
:1003C000322257A1AFF2570001F018FE3249032044
:1003D00008310023CDE90001322254A1AFF2A70079
:1003E00001F00CFE2C4904200C310023CDE9000162
:1003F000322251A1AFF2011001F000FE2649052082
:1004000010310023CDE9000132224EA1AFF25D1080
:1004100001F0F4FDAFF29710012300901A464FF45B
:100420007A714AA003F02AF81B4C01210022E061F6
:10043000084601F06DF8606100220121022001F000
:1004400067F8A061206801F004FEBDE81C4003F0DD
:1004500031BA1CB54FF4407000F05CFB00F04EFA6E
:100460004FF4E13000F0B6FA00F032F900F05CF938
:1004700000F0BFF9084901200023CDE900018022E6
:1004800037A1AFF2D50001F0B9FD02F05DF900200F
:100490001CBD000000080140000000202A2A2A2A72
:1004A0002A2A46495245B6D3C1D0D2D1C2FAA3AC0A
:1004B000B5C8B4FDB6C1C8A1BAF3C7E5BFD52A2AED
:1004C0002A2A2A2A0D0A00007B2274656D70223ABE
:1004D000222564222C2268756D6964223A222564E3
:1004E000222C2266697265223A222564227D000050
:1004F000008021422A2A2A2A2A2A444854B6D3C1F3
:10050000D0D2D1C2FAA3ACB5C8B4FDB6C1C8A1BAA5
:10051000F3C7E5BFD52A2A2A2A2A2A0D0A00000095
:10052000666972655F7461736B00000064687431A2
:10053000315F7461736B0000757267656E745F7410
:1005400061736B0074785F7461736B0046697265E8
:100550004175746F52656C6F616454696D657200AA
:1005600073746172745F7461736B00007047FEE7AF
:10057000FEE7FEE7FEE770470CB500224C4800920C
:100580000192016841F4803101604FF4A063016879
:1005900001F4003101910099491C0091019911B9B0
:1005A00000999942F3D10168890333D50121019162
:1005B00040490A6842F010020A600A6822F0030209
:1005C0000A600A6842F002020A60416841604168BC
:1005D0004160416841F480614160416821F47C11CF
:1005E0004160416841F4E8114160016841F0807167
:1005F000016001688901FCD5416821F00301416077
:10060000416841F0020141604168C1F38101022962
:10061000FAD10CBD01920CBD254810B5016841F01E
:10062000010101604168244A114041600168234A88
:1006300011400160016821F480210160416821F4CA
:10064000FE0141604FF41F018160FFF795FF1C49D7
:100650004FF00060086010BD154A10B55068194B86
:1006600010F00C01184803D0042901D0082901D04A
:10067000036012E05168536801F470114FF00204F6
:1006800013F4803F04EB914102D053689B0301D5E2
:100690000E4B00E00B4B5943016051680A4AC1F30D
:1006A0000311121D515C0268CA40026010BD0000B7
:1006B00000100240002002400000FFF8FFFFF6FE9D
:1006C00008ED00E000127A002000002000093D0043
:1006D000F8B50121482000F0B4FC2026ADF80060F8
:1006E00010240F4F8DF8034003258DF80250694602
:1006F000384600F0BEFA2021384600F024FBADF861
:1007000000608DF80340074C8DF802506946204682
:1007100000F0AFFA2021204600F015FBF8BD0000E4
:10072000000C01400018014008B50121042000F030
:1007300088FC04208DF803000220ADF8000003209F
:100740008DF802006946024800F093FA08BD0000E7
:100750000008014070B5634D0024286820F07060E7
:100760002860286840F00060286004E0641CE4B25F
:10077000012000F0E1F84021284600F0D0FA0128DD
:1007800003D0462C04D3012070BD462CEED3FAE7EB
:10079000002404E0641CE4B2012000F0CDF8402104
:1007A000284600F0BCFA18B1462C04D3022070BDD4
:1007B000462CEFD3FAE7002070BD10B5494C2068F5
:1007C00020F070602060206840F0407020600022BF
:1007D0004021204600F0BBFA1E2000F0C5F801229F
:1007E0004021204600F0B3FABDE810401E2000F082
:1007F000A3B808B50121042000F023FC4020ADF887
:10080000000003208DF8020010208DF803006946D7
:10081000344800F02EFAFFF7D0FFFFF79BFF08BD2A
:1008200070B500242F4D04E0641CE4B2012000F0F8
:1008300083F84021284600F072FA012801D1282CC3
:10084000F2D3002404E0641CE4B2012000F074F848
:100850004021284600F063FA08B93C2CF3D323204A
:1008600000F06AF84021284600F059FA002800D02C
:10087000012070BD70B5002004464006050EFFF74C
:10088000CFFF641C2843E4B2082CF6D370BD2DE9D9
:10089000FC410E460746FFF790FFFFF75BFF10B1E4
:1008A0000220BDE8FC8100246D46FFF7E3FF2855D8
:1008B000641CE4B2052CF8D39DF800009DF80110EB
:1008C0009DF8033042189DF802100B441A449DF81D
:1008D00004309A4203D1307039700020E1E70120E2
:1008E000DFE700000008014010B502F071F90128AF
:1008F00003D0BDE8104002F0EEBF10BD10B50420DB
:1009000000F04DF92B482C492C4A0068B0FBF1F35C
:10091000B0FBF1F14FF47A70414313700120508025
:100920004FF0E020026942F0020202614161016978
:1009300041F00101016110BD70B54FF0E0250021CB
:100940006C691E4AAB6912785043AA699A42FCD07E
:1009500002D2A3EB020302E0A4EB020633441944E3
:1009600013468142F1D370BD70B5044602F030F9F0
:1009700001280CD0114D6888844203D3B4FBF0F0F9
:1009800001F0FEFC6888B4FBF0F100FB11444FF469
:100990007A706043BDE87040CEE770B5054600242C
:1009A0004FF47A7603E03046FFF7C6FF641CAC4292
:1009B000F9D370BD2000002040420F003400002019
:1009C000704740490A885206FCD53E4AC1B2121D02
:1009D0001180704770B5054686B0012144F20400CD
:1009E00000F02FFB4FF40070ADF8100003248DF8D9
:1009F00012401820344E8DF8130004A9304600F040
:100A000038F93015ADF8100004208DF8130004A952
:100A1000304600F02EF925208DF814008DF8154091
:100A20008DF8164001208DF8170005A800F077F822
:100A30000020ADF80400ADF80600ADF80800ADF8F0
:100A40000C000C201F4CADF80A00009569462046AA
:100A500000F076FB012240F22551204600F0EDFB2C
:100A60000121204600F0DFFB06B070BD70B5154CCB
:100A700040F22551204600F097FC00280ED0204679
:100A800000F02BFC114AC1B21088030406D44404C0
:100A90004FF0000306D50A2901D0138070BD40F441
:100AA00000400DE00D2909D0C0F30D04084D401C95
:100AB00080B229551080C728EFD870BD40F480401F
:100AC000108070BD0038014000080140380000204F
:100AD000C80000200948804709480047FEE7FEE7B4
:100AE000FEE7FEE7FEE7FEE7FEE7FEE7FEE7FEE7DE
:100AF00004480549054A064B7047000019060008DE
:100B00003101000840550020405B00204057002084
:100B1000405700202849084328490860704730B5ED
:100B20000F23C27801780125F2B1244A126801F13D
:100B3000E02102F4E062C2F5E062120AC2F10404AC
:100B4000D3404278A24084781C401443220181F8AB
:100B50000024007800F01F018D404009800000F162
:100B6000E020C0F8005130BD01F01F008540480969
:100B7000800000F1E020C0F8805130BD104A1140E3
:100B800001430E48001F016070470C4A121D0029E6
:100B9000116801D0014300E08143116070474FF0BC
:100BA000E0210428086903D020F0040008617047A0
:100BB00040F00400FAE700000000FA050CED00E048
:100BC00080FFFF1F8F4910B5884206D10121042004
:100BD00000F049FA002104203BE08B49884206D10D
:100BE0000121082000F03FFA0021082031E0874968
:100BF000884206D10121102000F035FA0021102092
:100C000027E08349884206D10121202000F02BFAF9
:100C1000002120201DE07F49884206D1012140208B
:100C200000F021FA0021402013E07B49884206D1E0
:100C30000121802000F017FA0021802009E0774987
:100C400088420AD184150121204600F00CFA0021C7
:100C50002046BDE8104000F006BA10BD10B50121D5
:100C6000084600F000FA0021BDE81040012000F025
:100C7000FAB9F0B5CC78002204F00F03E40601D5F0
:100C80008C7823430C784FF00F0C14F0FF0F4FF0CB
:100C9000010E1BD005680E880EFA02F42640A6420B
:100CA00010D196000CFA06F725EA070703FA06F5B5
:100CB000CE783D43282E02D0482E02D002E0446177
:100CC00000E00461521C082AE5D305600A88FF2A67
:100CD0001CD94468002202F108060EFA06F50E88B7
:100CE0002E40AE420ED196000CFA06F7BC4303FA32
:100CF00006F7CE783C43282E00D14561CE78482EA9
:100D000000D10561521C082AE5D34460F0BD4FF6BE
:100D1000FF710180022181700421C1707047024679
:100D2000002092680A4200D001207047806880B29B
:100D3000704702460020D2680A4200D00120704766
:100D4000C06880B2704701617047416170470AB165
:100D50000161704741617047C160704741F4803262
:100D60008261816182618169806970472C4B10B515
:100D70001A684FF68074224042EA00100843186057
:100D800010BD2849C8617047F0B5254C002801DA2C
:100D9000E36900E06368450D2E0185B2C0F3015799
:100DA000B540C0F30342032F05D0C6020AD503267F
:100DB0009640B34307E023F07062636823F07063EA
:100DC000636002E0AB4343F0706201B12A43002844
:100DD00001DAE261F0BD6260F0BD10B58A0721F072
:100DE00003040F49120F21440F238C6893409C4346
:100DF0008C608B68904003438B6010BD0949C1F83B
:100E0000DC00704700080140000C01400010014068
:100E10000014014000180140001C01400020014066
:100E20000000014000002042A548016841F0010196
:100E300001604168A34A114041600168A24A114023
:100E40000160016821F480210160416821F4FE0104
:100E500041604FF41F018160704799490A6822F48C
:100E600080320A600A6822F480220A60B0F5803F6E
:100E700007D0B0F5802F03D1086840F4A0200860A7
:100E80007047086840F48030F9E7034600205909AC
:100E90008B4A01290AD002290AD0516A03F01F02A5
:100EA000012393400B4200D0012070471168F5E701
:100EB000116AF3E718B500204FF4A06400903120C8
:100EC000FFF7E3FF0099491C0091A14201D00028DF
:100ED000F5D03120FFF7D9FF002800D0012018BD40
:100EE000774A116821F0F80141EAC00010607047AC
:100EF000764908607047724B5A68084322F47C12A6
:100F00001043586070477149086670476C4A5168D1
:100F100021F003010143516070476948406800F0C7
:100F20000C007047664A516821F0F001014351609E
:100F30007047634A516821F4E06101435160704792
:100F40005F4A516821F4605141EAC0005060704727
:100F50005B4A0029517A01D0014300E0814351727C
:100F600070475A49C1F8D8007047554A516821F472
:100F700040410143516070475149002281F82020CF
:100F800081F82020012802D0042802D1052081F810
:100F9000200070474E490860704749490A6A024379
:100FA0000A6270474A4944390860704730B5444A7C
:100FB0005168484B11F00C0103D0042901D00829D5
:100FC00001D0036012E05168536801F470114FF0D2
:100FD000020413F4803F04EB914102D053689B0359
:100FE00001D53D4B00E03B4B5943016051680F2355
:100FF00003EA1111394B5C5C0168E14041605468BF
:10100000072505EA14241C5D21FA04F48460546861
:1010100005EAD4241B5DD940C1605268032303EA6A
:1010200092322E4B1B1F9A5CB1FBF2F1016130BD75
:10103000234A0029516901D0014300E081435161F5
:1010400070471F4A0029916901D0014300E08143A4
:10105000916170471A4A0029D16901D0014300E02B
:101060008143D1617047164A0029D16801D00143FC
:1010700000E08143D1607047114A0029116901D015
:10108000014300E081431161704711494039086014
:1010900070470E49C86470470949C87170470848CD
:1010A000416A41F0807141627047054A0146002063
:1010B00092680A4200D00120704701498872704747
:1010C000001002400000FFF8FFFFF6FE0000424261
:1010D0008004424200127A0000093D0044000020D2
:1010E000C44910B588420AD101218C032046FFF77C
:1010F000BAFF2046BDE810400021FFF7B4BFBE494B
:10110000884202D101214C0410E0BC49884202D13E
:1011100001218C040AE0BA49884202D10121CC04A1
:1011200004E0B84988420AD101210C052046FFF7A6
:10113000A3FF2046BDE810400021FFF79DBF10BD72
:1011400030B50446008A85B00D464CF6FF71084064
:10115000E98801432182A0894EF6F3110840A9884D
:101160002A8911436A8902431143A181A08A4FF65B
:10117000FF410840A9890143A1826846FFF716FF95
:101180009C48844201D1039800E00298A189090497
:1011900000EBC00101EB0010296801D5490000E017
:1011A0008900B0FBF1F06422B0FBF2F109010B09F8
:1011B0006FF018056B4300EB8300A3891D044FF00B
:1011C000320306D503EBC000B0FBF2F000F00700DD
:1011D00005E003EB0010B0FBF2F000F00F00084355
:1011E000208105B030BD4FF416510160002181808F
:1011F000C18001810C2242818181704710B5028A31
:101200004FF2FF031A400B884C8823438C88C9880F
:101210000C4323431343038210BD0021018041800E
:101220008180C18070470029818902D041F400513A
:1012300001E021F400518181704710B5C1F34213E0
:1012400001F01F040121A140012B07D0022B07D080
:101250001430002A026805D00A4304E00C30F8E795
:101260001030F6E78A43026010BD002A828A01D05E
:101270000A4300E08A4382827047028A22F00F020A
:101280000282028A0A4302827047828922F4006243
:10129000828182890A43828170470029818902D034
:1012A00041F0020101E021F0020181817047028AD0
:1012B00022F020020282028A0A4302827047002939
:1012C000018A02D041F4804101E021F48041018291
:1012D0007047C1F30801818070478088C0F308001F
:1012E0007047818941F0010181817047028BD2B240
:1012F0000283028B42EA012101837047028B02F4D0
:101300007F420283028B0A43028370470029818A4D
:1013100002D041F0200101E021F0200181827047DC
:101320000029818A02D041F0100101E021F0100172
:10133000818270470029818A02D041F0080101E0D2
:1013400021F00801818270470029818902D041F48F
:10135000004101E0C1F30E01818170470029818ABB
:1013600002D041F4006101E021F400618182704704
:10137000828A22F004028282828A0A438282704731
:101380000029818A02D041F0020101E021F002012E
:10139000818270470246002012880A4200D0012054
:1013A0007047C9430180704770B501F01F050126E1
:1013B0000024C1F3421306FA05F2012B0FD0022BD1
:1013C0000FD0838A4FEA11210088134206FA01F6F2
:1013D00000EA060001D000B10124204670BD8389D7
:1013E000F0E7038AEEE70A0A01219140C943018030
:1013F00070470000003801400044004000480040B1
:10140000004C00400050004000F108014FF0FF3256
:10141000C0E90112C1600161002101607047002133
:101420000161704742684A6093688B6093685960B5
:10143000916008610168491C0160704730B50C6813
:10144000621C02D000F1080202E0026904E01A46C0
:1014500053681D68A542FAD953684B6099608A6049
:10146000516008610168491C016030BDD0E901325A
:1014700001699A60D0E901235A604A68824201D129
:1014800082684A60002202610868401E0860704756
:1014900070B50D46040005D140F21B12F2A1F7A071
:1014A00002F086FB02F0ECF9D4E90F20216802FB80
:1014B000001161600021A1632168A1600A46D4E99E
:1014C0000F01401E00FB0121E16021464FF0FF307B
:1014D00001F8440F487004F110004DB1FFF794FF7C
:1014E00004F12400FFF790FF02F0E4F9012070BD41
:1014F00021690029F8D001F0A3FA0028F4D0E349CB
:101500004FF080500860BFF34F8FBFF36F8FEBE752
:101510002DE9F04117460E46050005D14FF4C4727F
:10152000D1A1D6A002F044FBBEB105FB06F05430B9
:1015300002F056FA04000ED004F154007EB120608F
:10154000C4E90F5620460121FFF7A2FF84F850702E
:1015500000212046A164BDE8F0810020E7E7246077
:10156000EEE72DE9F041856B174604460026026C34
:1015700082B1C7B1E06802F018FCE168206C091A7A
:10158000E1602268914202D26168081AE060022F8D
:1015900016D017E02068A8B9606801F062FB064623
:1015A000002060600EE0A06802F0FFFB216CA068E4
:1015B0000844A0606168884204D32068A06001E00C
:1015C00005B16D1E6D1CA5633046C4E72DE9F341DE
:1015D0000F4600980026846C2CB940F6CE12A2A1CA
:1015E000A6A002F0E5FAA06BE16B884205D340F6B5
:1015F000CF129DA1A1A002F0DBFAA06BE16B8842A3
:101600000CD294F945503A4669462046FFF7A9FFA7
:101610000646681C05D06D1C84F845503046BDE870
:10162000FC81606A0028F9D004F1240001F008FA76
:101630000028F3D00126F1E72DE9F041044602F03D
:101640001FF994F9455004F1240610E0A06C20B174
:1016500000212046FFF7BAFF04E0606A48B1304637
:1016600001F0EEF908B101F0A4FA6D1E6DB2002D83
:10167000ECDC4FF0FF3684F8456002F01BF902F015
:10168000FFF894F9445004F1100709E0206948B1CB
:10169000384601F0D5F908B101F08BFA6D1E6DB234
:1016A000002DF3DC84F84460BDE8F04102F002B99B
:1016B0002DE9FF4F83B099468B4604004FF000069A
:1016C00005D140F2D92268A16CA002F071FABBF1F9
:1016D000000F07D1206C28B140F2DA2262A167A086
:1016E00002F066FAB9F1020F08D1E06B012805D0CB
:1016F00040F2DB225CA161A002F05AFA01F068FA24
:1017000038B9059828B140F2DE2257A15BA002F05B
:101710004FFA4FF0000A4FF08057DFF8708102F067
:10172000AFF8A06BE16B884206D3B9F1020F03D08A
:10173000059800B316B325E04A4659462046FFF700
:1017400010FFA16C21B149462046FFF73FFF05E09D
:10175000616A19B104F1240001F072F928B1C8F8E6
:101760000070BFF34F8FBFF36F8F02F0A3F801201B
:1017700007B0BDE8F08F02F09DF821E0684601F067
:10178000CEF9012602F096F800F09BFD02F078F801
:1017900094F94400401C01D184F844A094F9450018
:1017A000401C01D184F845A002F084F805A96846E0
:1017B00001F0C6F930B12046FFF73EFF00F0F3FC20
:1017C0000020D5E702F05CF8A06BE16B884201D104
:1017D000012500E0002502F06DF895B104F110003C
:1017E000059901F0D4F82046FFF726FF00F0DBFC56
:1017F000002894D1C8F80070BFF34F8FBFF36F8FEC
:101800008DE72046FFF718FF00F0CDFC87E710B505
:10181000024600210120FFF77BFE040007D00021D3
:10182000416001600B460A46C160FFF741FF204658
:1018300010BD10B5040005D140F241220AA10FA04D
:1018400002F0B6F901F0C1F96168884220D1E06880
:10185000401EE06005D100231A4619462046FFF7D6
:1018600027FF012010BD00002E2E5C4672656552D8
:10187000544F535C71756575652E63004572726FC8
:10188000723A25732C25640D0A00000004ED00E077
:101890000020E7E730B4026C0B46002A0BD0C16889
:1018A0001144C1604468A14201D30168C16030BCE9
:1018B000184602F07ABA30BC70472DE9FF4F83B06A
:1018C0009B468A4604004FF0000607D140F2DC42F6
:1018D000AFF26C01AFF25C0002F06AF9BAF1000FEE
:1018E00009D1206C38B140F2DD42AFF28401AFF291
:1018F000740002F05DF901F06BF948B9059838B150
:101900004FF49C62AFF2A001AFF2900002F050F9E8
:101910004FF000094FF08057DFF8188601F0B0FF54
:10192000A56B35B351462046E668FFF7B3FFBBF120
:10193000000F11D0E660606A50B104F1240001F09C
:101940007FF828B1C8F80070BFF34F8FBFF36F8FD7
:1019500001F0B0FF01200BE76D1EA563206810B9F0
:1019600001F02FFA606020690028F1D004F1100026
:10197000E5E7059808B11EB106E001F09BFF27E0FE
:10198000684601F0CCF8012601F094FF00F099FCC4
:1019900001F076FF94F94400401C01D184F8449092
:1019A00094F94500401C01D184F8459001F082FF74
:1019B00005A9684601F0C4F8002820460AD0FFF7C0
:1019C0003BFE00F0F0FB204600F0A6FA0028A5D070
:1019D0000020CDE600F0A0FAD8B1206830B901F0BF
:1019E0004FFF606801F0FFF801F064FF04F124008C
:1019F000059900F0CCFF2046FFF71EFE00F0D3FB58
:101A000000288BD1C8F80070BFF34F8FBFF36F8FE2
:101A100084E72046FFF710FE00F0C5FB7EE770B5B7
:101A20000D46040007D14FF41E72AFF2C411AFF29D
:101A3000B41002F0BDF801F0C8F86168884204D122
:101A4000E068401CE060012070BD00232A46194672
:101A50002046FFF732FF0028F6D0E168491CE1601C
:101A600070BD70B50C46050007D140F2BD22AFF243
:101A70000821AFF2F81002F09BF8AC4207D940F20F
:101A8000BE22AFF21C21AFF20C2002F091F802222C
:101A900000212846FFF73CFD002800D0846370BD7C
:101AA0002DE9F047984615468946040007D140F2D3
:101AB0009F32AFF24C21AFF23C2002F079F8B9F13D
:101AC000000F09D1206C38B14FF46872AFF2682171
:101AD000AFF2582002F06CF8B8F1020F0AD1E06BB7
:101AE000012807D040F2A132AFF28421AFF2742076
:101AF00002F05EF801F003FF5020EFF3118780F34E
:101B00001188BFF34F8FBFF36F8FA06BE16B8842DB
:101B100007D3B8F1020F04D0002087F31188BDE885
:101B2000F08794F94560424649462046FFF719FD83
:101B3000701C04D0761C84F845600120EDE7A06C91
:101B4000012620B141462046FFF740FD06E0606ACD
:101B50000028F2D004F1240000F072FF0028ECD03D
:101B6000002DEAD02E60E8E72DE9F0410D46040093
:101B700007D140F23C42AFF21031AFF2003002F038
:101B800017F8206C38B14FF48862AFF22431AFF20D
:101B9000143002F00DF8206848B9606838B140F29E
:101BA0004542AFF23C31AFF22C3002F001F801F0C7
:101BB000A6FE5020EFF3118680F31188BFF34F8FFC
:101BC000BFF36F8FA16BE06B88421FD994F945007A
:101BD000491CA163411C04D0401C84F8450001202D
:101BE00015E0A06C012720B100212046FFF7EEFC94
:101BF00006E0606A0028F2D004F1240000F020FF23
:101C00000028ECD0002DEAD02F60E8E7002086F312
:101C10001188A0E42DE9F04790468946040007D1D9
:101C20004FF4B462AFF2C031AFF2B03001F0C0FF98
:101C3000B9F1000F09D1206C38B140F2A152AFF2D6
:101C4000D831AFF2C83001F0B3FF01F058FE502098
:101C5000EFF3118780F31188BFF34F8FBFF36F8FBE
:101C6000A66BF6B194F9445049462046FFF712FEA0
:101C7000761EA663681C04D06D1C84F844500120B5
:101C800010E020690028FAD004F1100000F0D8FE1E
:101C90000028F4D0B8F1000FF1D00121C8F80010ED
:101CA000EDE7002087F3118839E72DE9F0410E4672
:101CB000040007D140F2FC52AFF25441AFF244406D
:101CC00001F076FF4EB9206C48B140F2FD52AFF200
:101CD0006841AFF2584001F06BFF206C38B940F218
:101CE000FE52AFF27C41AFF26C4001F061FF01F0B7
:101CF00006FE5020EFF3118580F31188BFF34F8F5C
:101D0000BFF36F8FA06B30B131462046E768FFF715
:101D1000C1FD0120E76085F311881CE410B50400C3
:101D200007D140F22F62AFF2C041AFF2B04001F0F4
:101D30003FFF01F0A5FDA46B01F0BCFD204691E53D
:101D400010B5040007D140F24162AFF2E441AFF2B6
:101D5000D44001F02DFF01F093FDD4E90E10441A98
:101D600001F0A8FD20467DE510B5040007D140F242
:101D70005162AFF20C51AFF2FC4001F019FFA06BC1
:101D800070E56D4A002102EBC1035B68834206D116
:101D9000002042F8310002EBC10148607047491C45
:101DA0000829F0D3704710B5040007D140F25D62F6
:101DB000AFF24C51AFF23C5001F0FAFE2046FFF773
:101DC000E0FF2046BDE8104001F075BEC06C7047D2
:101DD000C164704790F85000704710B5040007D1F7
:101DE00040F29372AFF28051AFF2705001F0E0FE1A
:101DF000A06B08B1002035E5012033E510B50400E3
:101E000007D140F2BA72AFF2A051AFF2905001F098
:101E1000CFFEA06BE16B884201D1012022E50020BA
:101E200020E510B5444B002253F832401CB1521C3F
:101E3000082AF9D316E543F8321003EBC2014860D3
:101E400010E510B500243C4A214602EBC1035B6853
:101E5000834202D152F8314002E0491C0829F4D3F0
:101E60002046FFE470B515460E46044601F008FD15
:101E700094F944100020491C01D184F8440094F9DD
:101E80004510491C01D184F8450001F013FDA06BF9
:101E900028B92A46314604F1240000F0B6FD204658
:101EA000BDE87040FFF7C8BB00220421FFF730BB3C
:101EB00070B50D46044601F0E3FCA06C08B9A06BB8
:101EC00008B1002401E0A564012401F0F3FC2046E0
:101ED00070BD10B50446806C884201D1A06B08B17A
:101EE0000020BFE401F0CCFC0020A06401F0E2FC83
:101EF0000120B7E408B500230A4669460093FFF7BE
:101F0000DCFC009808BD08B500210A46009169462E
:101F1000FFF780FE009808BD10B5044601F0B0FC44
:101F2000A06B20B1002401F0C5FC20469AE40124F6
:101F3000F9E7000004ED00E0900100202DE9F041F8
:101F4000054601F09DFCFE4EB068401CB060306854
:101F5000FC4F10B1706930B32BE03560B0680128D8
:101F600027D1002404EB840007EB8000FFF74CFA34
:101F7000641C202CF6D3F448FFF746FAF2481430DC
:101F8000FFF742FAF0482830FFF73EFAEE483C30BF
:101F9000FFF73AFAEC485030FFF736FAEA48706338
:101FA0001430B06305E03068E96AC06A884200D83E
:101FB0003560706A0121401C70626864E86A3269A9
:101FC00081401143316100EB800007EB8000291D47
:101FD000FFF728FA01F06EFC706900280CD0306819
:101FE000E96AC06A884207D2D8494FF08050086039
:101FF000BFF34F8FBFF36F8FBDE8F0812DE9FF5F17
:102000008346DDE90E87994616468A46900001F020
:10201000E7FC05001AD05C2001F0E2FC040012D0BD
:1020200025630021CDE90241CDE900874B463246C8
:102030005146584601F087F82046FFF77FFF012000
:1020400004B0BDE8F09F284601F035FD4FF0FF30A9
:10205000F6E770B5044601F013FCB94D04B92C68DD
:10206000201DFFF703FA58B9E06AB64A00EB800179
:1020700052F8211021B90121814028698843286143
:10208000A06A18B104F11800FFF7F0F9686A401C63
:1020900068622868844208D1AB48211D3C30FFF7B4
:1020A000C1F96868401C686007E0A868401EA86025
:1020B000204601F0A1F801F092F801F0FBFB6869FD
:1020C000002812D0286884420FD1286B28B140F232
:1020D00065429FA1A3A001F06BFD9C494FF0805089
:1020E0000860BFF34F8FBFF36F8F70BD2DE9F041D4
:1020F000934F0026386B38B1B869401CB861F86955
:1021000000B10126304677E7FD686D1CFD6011D1F6
:10211000786B006828B140F6D9128DA191A001F02A
:1021200047FD786BB96B7963B863386A401C3862D5
:1021300001F055F8B86ADFF80C82854209D3786B54
:10214000006880B1786BC068C468606885420DD251
:10215000B8623868C06A00EB800158F82100012895
:10216000CDD90126CBE74FF0FF30F1E7201DFFF777
:102170007DF9A06A18B104F11800FFF777F9E06A59
:1021800001213A6981401143396100EB800108EB7C
:102190008100211DFFF746F9E06A3968C96A884263
:1021A000CDD30126CBE72DE9F047654D0024274626
:1021B000286B28B94FF4FD6265A16AA001F0F8FC14
:1021C00001F05EFB286B401E2863286BF0BBA868FB
:1021D0005D4928310126C8B3DFF868918846D8F8F0
:1021E0000010E9B1D8F80C00C46804F11800FFF73A
:1021F0003DF9201DFFF73AF9E06A2A6906FA00F175
:102200001143296100EB800109EB8100211DFFF7DB
:1022100009F9E06A2968C96A8842E0D3EE61DEE71D
:102220000CB100F0DCFFAC693CB1FFF75FFF00B11F
:10223000EE61641EF9D10020A861E86930B143491C
:10224000012738070860BFF34F8F00E001E0BFF3BC
:102250006F8F01F02FFB3846BDE8F0872DE9F04184
:10226000374E0F460446F5683068001DFFF7FEF84C
:1022700038B9306890F82C100120884031698143CA
:102280003161601C08D13FB13168BDE8F0412E4892
:102290005030091DFFF7C6B830682C44AC4244608A
:1022A000316805D2B06BBDE8F041091DFFF7C6B833
:1022B000706B091DFFF7C2F8B06A844200D2B462A5
:1022C0009AE61F48016B491C016370472DE9F041F4
:1022D0000E4605004FF0000405D140F279421CA1E2
:1022E00020A001F065FC2EB940F27A4218A11DA091
:1022F00001F05EFC124F386B28B140F27B4214A112
:1023000018A001F055FCFFF7DCFFFA682868811976
:10231000904202D9884202D804E0884201D8914212
:1023200000D9012429601CB1881A0021FFF796FF0B
:10233000FFF739FF002822D14FF08050034919E000
:1023400054000020D00100205004002004ED00E0E3
:102350002E2E5C4672656552544F535C7461736BEC
:10236000732E63004572726F723A25732C25640DCB
:102370000A0000000860BFF34F8FBFF36F8F3BE68A
:1023800010B5040014D0FE49096B39B140F2CF42B8
:10239000AFF24401AFF2340001F00AFCFFF791FF05
:1023A00000212046FFF75AFFFFF7FDFE002807D166
:1023B000F4494FF080500860BFF34F8FBFF36F8F29
:1023C00010BD70B5050007D140F2FB42AFF28001AD
:1023D000AFF2700001F0ECFBE94E3068854201D1AC
:1023E000002070BD01F04CFA6C6901F063FA706B6B
:1023F000844202D0B06B844201D1022070BDE24819
:10240000844204D1A86A0028F7D1032070BDDE48B9
:102410001438844202D00CB1012070BD042070BD7C
:1024200010B5044601F02CFA0CB9D5480468E46AEA
:1024300001F040FA204610BD10B5044601F05FFAE5
:102440005020EFF3118180F31188BFF34F8FBFF35A
:102450006F8F0CB9CA480468E06A81F3118810BD17
:102460002DE9F04100260D460446202908D34FF4FB
:10247000B062AFF22411AFF2141001F099FB1F25E6
:1024800001F0FEF9BE4F04B93C68E06CA8423FD0B1
:102490003968854206D98C4207D03968C96AA94291
:1024A00002D902E08C4200D10126E16A88468842C6
:1024B00000D1E562E564A069002802DBC5F12000D7
:1024C000A061B24D08EB8800616905EB8000814294
:1024D00015D1201DFEF7CAFF012120B93A6901FA82
:1024E00008F082433A61E06A3A69814011433961F8
:1024F00000EB800005EB8000211DFEF793FF3EB14D
:10250000A0494FF080500860BFF34F8FBFF36F8F2B
:10251000BDE8F04101F0CEB970B5994D286B10B10E
:102520000120E86170BD0020E8612869974EB0FA8B
:1025300080F0C0F11F0000EB800456F8240038B989
:1025400040F6F622AFF2F811AFF2E81001F030FBDE
:1025500006EB840000F1080241684968416091423D
:1025600001D149684160C868286070BD70B50446F3
:1025700001F086F9824D04B92C68201DFEF776FF24
:1025800058B9E06A814A00EB800152F8211021B964
:1025900001218140286988432861A06A18B104F1AB
:1025A0001800FEF763FF211D7748FEF73BFF01F09F
:1025B00081F9686928B101F063F900F010FE01F0BB
:1025C00079F92868844213D1686990B1286B38B1D1
:1025D00040F25762AFF28821AFF2782001F0E8FABA
:1025E00068494FF080500860BFF34F8FBFF36F8F83
:1025F00070BD6548A9680068884202D10020286043
:1026000070BDBDE8704087E770B50025040007D1B4
:1026100040F28162AFF2C821AFF2B82001F0C8FAEF
:1026200059496069884205D1A06A2839884201D099
:1026300000B90125284670BD70B504002BD0504D5F
:102640002868844231D001F01BF92046FFF7DCFFF7
:10265000E8B1201DFEF70AFFE06A01212A698140E6
:1026600011432961494900EB800001EB8000211DE5
:10267000FEF7D8FEE06A2968C96A884207D3414953
:102680004FF080500860BFF34F8FBFF36F8FBDE8EE
:10269000704001F00FB940F2AB62AFF24C31AFF2D3
:1026A0003C30BDE8704001F083BA70BD2DE9F041C7
:1026B0000026040007D140F2E262AFF26C31AFF2C3
:1026C0005C3001F075FA01F01AF95020EFF3118532
:1026D00080F31188BFF34F8FBFF36F8F2046FFF752
:1026E00093FFF0B1264F386B20B1274804F1180151
:1026F000283814E0E06A3968C96A884200D30126A4
:10270000201DFEF7B3FEE06A01213A6981401143C2
:1027100039611E4900EB800001EB8000211DFEF7AE
:1027200081FE85F31188304666E4184E4FF08054E0
:10273000144D00F06BFD30680128FAD92C60BFF30E
:102740004F8FBFF36F8FF4E71CB50D4800242C307A
:10275000CDE90040234682220DA10F48FFF74EFC31
:10276000012803D100F06DFE01281BD0401C2BD1A5
:1027700040F28472AFF22841AFF2184002B00DE08F
:102780005400002004ED00E0A0040020D00100204F
:1027900049444C45000000002B270008BDE81040CC
:1027A00001F006BA502080F31188BFF34F8FBFF3BA
:1027B0006F8FFA484FF0FF31816201214161C4609F
:1027C000BDE81C4001F01AB81CBD502080F31188F0
:1027D000BFF34F8FBFF36F8FF0490020486101F0C6
:1027E00043B8EE48C068704710B501F088F8EB4870
:1027F000C06810BDE9488068704710B510B1044644
:102800001CB10AE0E5480468FAE740F68C02AFF232
:10281000C041AFF2B04001F0CBF904F1340010BD7B
:102820002DE9F0471E4691460C4607000ED005469E
:1028300005F13400C4E90050E86A2061286BE061CA
:10284000686CA060207B032803D00AE0D3480568A9
:10285000EEE7FFF736FDA86A08B102202073FFF704
:10286000A2FC4FF00008E86CC4E90508052E01D071
:10287000267303E03846FFF7A4FD2073B9F1000F7B
:102880000AD00021286B01E0401C491C0278A52ACF
:10289000FAD088082084DFE4A4F82080DCE42DE965
:1028A000F0478146086892460C460025F8B1486812
:1028B00001F1080640684860B04201D140684860B4
:1028C000D0F80C80606842686260B24201D1516801
:1028D0006160606805EBC50109EB8101C76853467B
:1028E00001223846FFF79CFF6D1C4745EAD1284678
:1028F000B2E42DE9F04717460A4606460024202593
:10290000FFF7DFFCDFF89482D8F8080082423AD360
:10291000DFF88C926D1E05EB850104EBC40009EB1A
:10292000810106EB80000122FFF7B9FF0444002D6E
:10293000F0D104EBC40006EB800002224546D8F833
:102940003410FFF7ACFF044404EBC40006EB800036
:102950000222A96BFFF7A3FF044404EBC40006EBBB
:10296000800004228F49FFF79AFF04448D4904EB4D
:10297000C40006EB800003221431FFF790FF0444EB
:102980000FB100203860FFF70EFC204664E470B5FC
:102990000D46040007D140F60632AFF24C61AFF2AB
:1029A0003C6001F005F97D48016820461831FEF7CA
:1029B00045FD2846BDE8704001214FE42DE9F04176
:1029C00017460E46050007D140F61732AFF2806178
:1029D000AFF2706001F0ECF8704C206B38B940F643
:1029E0001B32AFF29461AFF2846001F0E1F821682C
:1029F00046F000408861216828461831FEF712FD34
:102A00003846BDE8F041012128E470B514460E4671
:102A1000050007D140F63132AFF2CC61AFF2BC60B5
:102A200001F0C6F85D48016828461831FEF7FAFC47
:102A30000CB14FF0FF3621463046BDE870400DE442
:102A40002DE9F041C068C4683CB940F66132AFF28C
:102A50000071AFF2F06001F0ABF804F11800074626
:102A6000FEF704FD4D4D286B012660B14D483946F7
:102A70001438FEF7D7FCE06A2968C96A884212D97F
:102A80000120EE611CE4201DFEF7F0FCE06A2A69DB
:102A900006FA00F111432961414900EB800001EB86
:102AA0008000211DE5E700200AE470B53B4D064695
:102AB0000C46286B38B940F69932AFF26C71AFF220
:102AC0005C7001F075F844F000403060F4683CB987
:102AD00040F6A132AFF28871AFF2787001F068F879
:102AE0003046FEF7C3FC201DFEF7C0FCE06A01265D
:102AF0002A6906FA00F111432961294900EB800097
:102B000001EB8000211DFEF78DFCE06A2968C96A8F
:102B1000884202D90120EE6170BD002070BD10B561
:102B2000040007D140F6C132AFF2DC71AFF2CC70D5
:102B300001F03EF81948016A2160C068606010BD6C
:102B400070B50D46040007D140F6CB32AFF6000158
:102B5000AFF2F07001F02CF83DB940F6CC32AFF690
:102B60001001AFF6000001F023F800F089FE0B4AD7
:102B7000D06829684B1C0FD02368126A934202D098
:102B80006268824210D96268801A88420CD2081AA0
:102B900028602046FFF7C3FF002406E05400002011
:102BA000D00100208C040020012400F083FE204688
:102BB00070BDFF490120C8617047002800D0806CBB
:102BC0007047002800D081647047F948006870475A
:102BD000F748416919B1006B18B100207047012016
:102BE00070470220704770B5040039D0F04DE06A9C
:102BF0002968C96A884233D2A069002804DB2868A2
:102C0000C06AC0F12000A061E06AEA4E00EB8000DB
:102C1000616906EB800081421FD1201DFEF726FC72
:102C2000012150B9E06A00EB800256F8222022B957
:102C30002A6901FA00F082432A612868C06AE062CA
:102C40002A6981401143296100EB800006EB800076
:102C5000211DBDE87040FEF7E5BB2868C06AE06250
:102C600070BD70B504004FF0000640D0D04D28680C
:102C7000844207D040F6C762AFF62C11AFF61C10A5
:102C800000F096FF206D38B940F6C962AFF64011EA
:102C9000AFF6301000F08CFF206D401E2065E26C16
:102CA000E16A914223D010BB201DFEF7DFFBC14932
:102CB000012250B9E06A00EB800351F8233023B9B8
:102CC0002B6902FA00F083432B61E06CE062C0F1F3
:102CD0002000A061E06A2B6982401A432A6100EB60
:102CE000800001EB8000211DFEF79CFB0126304691
:102CF00070BD2DE9FF41002705460770AC4881688B
:102D00000291806800EBC000800000F069FE0600C0
:102D10004BD000220299FFF7ECFDCDE902073846BF
:102D20003AE000EBC00006EB8001087B01280FD0E1
:102D300002280FD003280FD004280FD000244968A0
:102D4000284600F0EFFF284601F010F8202109E0A6
:102D50005224F4E74224F2E75324F0E74424EEE758
:102D60002954401C0F28FBD32F540544039800EB33
:102D7000C00006EB80008268018CCDE90012036977
:102D800022468DA1284600F01FFF284600F0EEFFE6
:102D900005440398401C039002998842C1D304B0B3
:102DA0003046BDE8F04100F086BEBDE8FF818049B5
:102DB00008680A688069D26A0968C2F120028A61DB
:102DC00070477B49086818B10868026D521C02659B
:102DD0000868704770B50C46064600F051FD744D0A
:102DE0002868406D80B92968012081F858005CB1DD
:102DF00001212046FFF732FA73494FF080500860F6
:102E0000BFF34F8FBFF36F8F00F054FD00F038FD1C
:102E10002868446D002034B116B12968486502E085
:102E20002A68611E5165296881F8580000F042FD4A
:102E3000204670BD2DE9F0411E46154688460746DE
:102E400000F01EFD5A4C206890F85800022814D05B
:102E50002068416DB94341652168012081F858001F
:102E60005EB101213046FFF7F9F957494FF0805024
:102E70000860BFF34F8FBFF36F8F00F01BFD00F0B2
:102E8000FFFC15B12068406D2860206890F858005C
:102E900001280DD02068416D21EA08014165012516
:102EA0002168002081F8580000F004FD28463BE42A
:102EB0000025F5E72DE9F0411F4690460D46040038
:102EC0004FF0010607D141F2FD02AFF67C31AFF6BB
:102ED0006C3000F06DFE00F0D3FC0FB1606D386017
:102EE00094F85800022184F85810B8F1050F0ED25A
:102EF000DFE808F00D03060C0A00616D294301E0CC
:102F0000616D491C616502E0022803D065650128F6
:102F100002D02AE0002628E0201DFEF7A7FA244D63
:102F2000E06A01212A69814011432961214900EBAE
:102F3000800001EB8000211DFEF774FAA06A38B111
:102F400041F23512AFF6F831AFF6E83000F030FE5E
:102F5000E06A2968C96A884207D91B494FF0805046
:102F60000860BFF34F8FBFF36F8F00F0A3FC3046B4
:102F700088E52DE9F0471F46DDF8209092460D4682
:102F800004004FF0010807D141F26812AFF640414A
:102F9000AFF6304000F00CFE00F0B1FC5020EFF333
:102FA000118680F31188BFF34F8FBFF36F8F0DE051
:102FB00054000020D001002009256309257509254A
:102FC000750925750D0A000004ED00E00FB1606D74
:102FD000386094F85800022184F85810BAF1050FAF
:102FE0000ED2DFE80AF00D03060C0A00616D2943DA
:102FF00001E0616D491C616502E0022803D065654E
:10300000012803D031E04FF000082EE0A06A38B16B
:1030100041F2AF12AFF6C841AFF6B84000F0C8FDBC
:103020008D4D286B012778B104F118018B48FEF70C
:10303000F9F9E06A2968C96A884216D9B9F1000F1E
:1030400012D0C9F8007010E0201DFEF70FFAE06AF8
:103050002A6907FA00F11143296100EB80018048D9
:1030600000EB8100211DE2E7EF6186F31188404605
:1030700011E42DE9F0418846040007D141F2E31242
:10308000AFF63451AFF6245000F092FD00F037FC5B
:103090005020EFF3118780F31188BFF34F8FBFF3F8
:1030A0006F8F94F85800022184F85810616D491C04
:1030B000616501282ED1A06A38B141F20922AFF62C
:1030C0007051AFF6605000F073FD634D286B012620
:1030D00078B104F118016148FEF7A4F9E06A2968A3
:1030E000C96A884216D9B8F1000F12D0C8F800603A
:1030F00010E0201DFEF7BAF9E06A2A6906FA00F12D
:1031000011432961564900EB800001EB8000211D2D
:10311000E2E7EE6187F31188B4E410B558B10446D4
:1031200000F0AEFB94F85800022807D0002400F00D
:10313000C1FB204610BD48480468F1E7002084F830
:1031400058000124F3E72DE9F0470E46DDE9098434
:103150001746824691009946089DA522206B00F0F3
:1031600069FE6FF00301206B01EB8701084420F03A
:103170000707780705D040F22B323AA13EA000F0B5
:1031800017FD00202218315C82F83410315C11B137
:10319000401C1028F6D3002684F84360202D00D36D
:1031A0001F25E562C4E91356201DFEF738F904F126
:1031B0001800FEF734F92461C5F120006462A061B3
:1031C000666584F858604A465146384600F0F9FA78
:1031D0002060B8F1000F01D0C8F8004048E71E4851
:1031E000416B096829B1416BC968C9684968816246
:1031F00070474FF0FF31FAE710B50446006B00F05E
:103200005AFC2046BDE8104000F055BC70B5134E86
:10321000114D14361CE0FFF754F8306820B100243B
:10322000FEF7C1FFA4B901E00124F9E700F028FB93
:10323000F068C468201DFEF719F9A868401EA86050
:103240006868401E686000F035FB2046FFF7D4FF39
:1032500068680028DFD170BD540000207804002089
:10326000D00100202E2E5C4672656552544F535C8F
:103270007461736B732E63004572726F723A2573BB
:103280002C25640D0A00000070B500244160F74D44
:103290000061914206D8D11A8269914206D2011D7D
:1032A000286907E09A4203D2994201D3012403E03E
:1032B000011DE868FEF7C2F8204670BD2DE9FF4702
:1032C0009946DDF830A090460D4606004FF0000705
:1032D00005D14FF4D372E6A1EBA000F069FCE34CFA
:1032E000206880B1CDE900580296062D11DAFFF76B
:1032F0006FFC02284FF0000309D0002269462068C5
:10330000FEF7D6F9074604B03846BDE8F0875246C6
:10331000F4E700234A466946FEF7C2FBF2E770B5C0
:1033200086B0D24E53E00198002806DADDE90301A9
:10333000029A90470198002849DB039C606910B10C
:10334000201DFEF793F805A800F04DF905460198F9
:103350000A283CD2DFE800F00505053B27380505C3
:103360003B270298A169034601442A462046FFF7FD
:103370008BFF00282BD0616A20468847E06901282E
:1033800025D1002000900298A16900234218194617
:103390002046FFF793FFD0B940F22132B4A1BAA082
:1033A00000F006FC13E00298A06128B94FF44E72B9
:1033B000AFA1B5A000F0FCFBA0692B4641191A464D
:1033C0002046FFF761FF02E0204600F074FB002377
:1033D0001A4601A93068FEF770FA0028A3D106B09A
:1033E00070BDA24CE068016839B1002139B10020FC
:1033F00000F00BF9FFF793FFF4E70121F6E7C0684F
:103400000068F5E710B500F03BFA984C2068A0B9C9
:10341000A148FDF7F9FFA0481430FDF7F5FF9E48DD
:10342000E06014302061002210210520FEF770F8C2
:10343000206010B199A1FEF7F4FCBDE8104000F047
:1034400039BA1CB50024FFF7DDFF8848006868B171
:1034500086491F20091DCDE9000100234FF4827227
:1034600090A19248FEF7CAFD040005D140F2331244
:103470007FA185A000F09CFB20461CBD2DE9F047F4
:103480000746994616460D462C20DDF820A000F090
:10349000A7FA040014D0B8464F46D1462DB94FF4D0
:1034A000C67283A188A000F083FBFFF7ABFF04F195
:1034B0001801C4F8008081E8E002201DFDF7AFFF8D
:1034C000204622E710B5694C606828B94FF4E872CD
:1034D00067A16DA000F06CFB606810BD10B5040022
:1034E00005D140F2D91262A167A000F061FBA0698A
:1034F00010BD10B5040005D140F2E3125CA162A03A
:1035000000F056FB606810BD10B5040005D140F214
:10351000ED1257A15CA000F04BFB206810BD10B568
:10352000040005D140F2DA3251A157A000F040FB6F
:1035300000F0A6F9606908B1012400E0002400F061
:10354000B9F9204610BD10B5040005D140F2EF32A4
:1035500047A14DA000F02CFB00F092F9246A00F086
:10356000A9F9204610BD70B50D46040005D140F202
:10357000FF323FA144A000F01BFB00F081F925625F
:10358000BDE8704000F096B97FB56FF0010401AE60
:10359000009486E8070035481D4600232A46694600
:1035A0000068FEF77DFA04B070BD2DE9FF412F4C95
:1035B00007469846206815460E4628B940F22B4229
:1035C0002BA131A000F0F4FA4FF0FF30CDE9000755
:1035D000CDE902650023424669462068FEF768F897
:1035E00004B0BDE8F08170B50546FFF7FAF81F4E4C
:1035F0000446B068844203D200F070F8012000E075
:10360000002028602046B46070BDF8B50D4606461F
:10361000FEF757FE6846FFF7E6FF0446009810B134
:10362000FEF7C1FDF8BD1148ADB101690968D9B116
:103630000025311B2A460068FEF714FCFEF7B3FD97
:103640000028EFD124494FF080500860BFF34F8F1E
:10365000BFF36F8FF8BDA642EBD8FEF7A4FD21465D
:10366000304600F06EF8F8BD0125E2E7900000203A
:103670002E2E5C4672656552544F535C74696D65BD
:1036800072732E63000000004572726F723A2573E8
:103690002C25640D0A000000B4040020546D725102
:1036A00000000000546D722053766300E33300087D
:1036B0002E2E5C4672656552544F535C74696D657D
:1036C00072732E63000000004572726F723A2573A8
:1036D0002C25640D0A00000004ED00E0F8B52F4E23
:1036E00027E0C068C4680568201DFDF7BFFE616A59
:1036F00020468847E06901281BD1A0692844A842D8
:1037000006D924616060211DF068FDF797FE10E086
:1037100000200346014600902A462046FFF7CEFDD2
:1037200038B940F29232AFF27801AFF2640000F0A3
:103730003FFAF06801680029D3D13169C6E9031066
:10374000F8BDF8B5054615480E46C068C068C4689F
:10375000201DFDF78BFEE069012818D1A0692B46DA
:10376000411932462046FFF78FFD80B10020034605
:10377000014600902A462046FFF7A0FD38B94FF4D5
:103780000272AFF2D401AFF2C00000F011FA616A28
:1037900001B02046BDE8F04008470000900000203E
:1037A00069484068401C04D0F42268A172A000F06F
:1037B000FFF9502080F31188BFF34F8FBFF36F8F55
:1037C000FEE710B5031F4FF080741C601B1F21F033
:1037D00001011960191F6C4B0B60143940380A60E5
:1037E00010BD6A484FF47A710068B0FBF1F14FF0F8
:1037F000E020491E41610721016170471CB5644901
:1038000008780190FF20087008788DF800009DF876
:1038100000004D4A00F0500010700720906007E053
:103820009068401E90609DF8000040008DF80000F8
:103830009DF800000006F3D4107A000200F4E06066
:103840009060019808705348016841F4700101606C
:10385000016841F070410160FFF7C3FF0020506034
:10386000FCF7D4FC00201CBD37484068B0F57A7FD7
:1038700005D04FF4B57235A13FA000F099B970475B
:10388000502080F31188BFF34F8FBFF36F8F2E4905
:103890004868401C486001280BD13E481C3800682D
:1038A00010F0FF0F05D04FF4BD7228A132A000F038
:1038B0007FB9704710B5244C606828B940F2811276
:1038C00022A12DA000F074F96068401E606001D153
:1038D00080F3118810BD10B5502080F31188BFF31C
:1038E0004F8FBFF36F8FFEF701FC20B129494FF0D6
:1038F00080501C390860002080F3118810BD10B57D
:10390000FCF7BAFC104C10280CD300F1E02090F822
:10391000F0032178884205D24FF42A720BA116A039
:1039200000F046F91B4814380068A16800F4E06014
:10393000884207D9BDE810404FF42E7203A10EA0B3
:1039400000F036B910BD0000A40000202E2E5C4609
:1039500072656552544F535C706F727461626C652E
:103960005C525644535C41524D5F434D335C706F23
:1039700072742E63000000004572726F723A2573F4
:103980002C25640D0A000000A1370008200000204B
:1039900000E400E020ED00E030B5744900E011469D
:1039A0000A688242FBD34B685C18844203D14068AA
:1039B00018444860084643681C18944209D16B4C6F
:1039C000103C2468A24209D052681A4442600A6836
:1039D00012680260814200D0086030BD0460F9E7DF
:1039E0002DE9F04105460026FEF76BFC5F4F103FC6
:1039F000386808B900F098F8F86805424ED1002DF3
:103A00004CD0083568070BD005F00700C0F108005E
:103A10000544680704D0BF2255A15FA000F0C8F894
:103A2000002D3BD07868854238D850490846046854
:103A300001E0214604466068A84202D220680028BE
:103A4000F7D13868B846844228D00E6820680860EC
:103A500060680836401B10280ED96719780704D013
:103A6000EC2243A14CA000F0A3F86068401B7860F2
:103A700038466560FFF790FF6168D8F80400424659
:103A8000401AC8F80400D8F80830984200D2906074
:103A9000D8F80C0001430020C4E90001FEF783FBC5
:103AA000700705D04FF4967231A13BA000F080F86A
:103AB0003046BDE8F08170B500282BD02B4DA0F129
:103AC0000804103D6068E968084205D14FF4A0720F
:103AD00027A131A000F06CF8206828B140F2411213
:103AE00023A12DA000F064F86068E968084211D0B5
:103AF0002268002A0ED188436060FEF7E2FB60680E
:103B00006968084468602046FFF746FFBDE87040DA
:103B1000FEF749BB70BD1548103840687047134820
:103B200010388068704770471F484FF4A041420723
:103B300006D0C01D1C4920F00700411AC1F5A04164
:103B40000A4A00230144C2E900030839103A21F06F
:103B5000070111604B600B600B1AC0E90013936002
:103B60004FF000405360D06070470000C00000205C
:103B70002E2E5C4672656552544F535C706F7274A2
:103B800061626C655C4D656D4D616E675C68656119
:103B9000705F342E630000004572726F723A2573B5
:103BA0002C25640D0A000000DC0400207047000092
:103BB0000FB4044910B503AA029800F0D5F910BC5F
:103BC0005DF814FB3C0000200FB41CB5074B06AA9F
:103BD0007B4469460090059800F097F900206946FB
:103BE00000F0A6F91CBC5DF814FB00005D030000AA
:103BF0002DE9F0410E460446002020622046E1688F
:103C0000884730B3252805D0D4E901219047206AA0
:103C1000401CF2E7E168204600278847050018D0DD
:103C2000A5F14100192802D820354FF4006732462B
:103C3000294620462760FCF7B5FA40B1012804D098
:103C4000F61D26F007060836D8E7361DD6E72846C3
:103C5000DAE7206ABDE8F08170B50C460546012A16
:103C600005D02878800600D5EA69002302E0012308
:103C700005E05B1C934202D2E05C0028F9D1A86900
:103C8000E618C01AA861286A184428622846AFF3CB
:103C9000008004E0D5E9012114F8010B9047B442FB
:103CA000F8D32846AFF3008070BD00002DE9F04145
:103CB0000646002410687529314616A510D0AFF3CA
:103CC0000080002802DA404213A507E031688A0725
:103CD00001D512A502E0490704D511A5012401E090
:103CE000AFF3008000210A2206F1240709E0B0FBAF
:103CF000F2FCB0FBF2F302FB1C00303078541846A3
:103D0000491C0028F3D123462A463046BDE8F0413D
:103D100000F09CB8000000002D0000002B00000007
:103D20002000000040EA0103024630B59B0710D195
:103D30004FF0013400E008C208C91D1B9D4315EA7D
:103D4000C41FF8D013F0FF0102F8011B0DD01B0AAD
:103D5000F8E711F8013B002B02F8013B05D011F800
:103D6000013B002B02F8013BF3D130BD10B5431CE1
:103D700002E010F8011B71B18107FAD14FF0013256
:103D800002C88C1A8C4314EAC211F9D0C01A0A0670
:103D900003D0C01E10BDC01A10BD0A0401D0801E81
:103DA00010BD0902FCD0401E10BD032A40F2308035
:103DB00010F0030C00F0158011F8013BBCF1020F6C
:103DC000624498BF11F801CB00F8013B38BF11F8ED
:103DD000013BA2F1040298BF00F801CB38BF00F804
:103DE000013B11F0030300F0D180083AC0F00880D5
:103DF00051F8043B083A51F804CBA0E80810F5E765
:103E0000121D5CBF51F8043B40F8043BAFF3008047
:103E1000D20724BF11F8013B11F801CB48BF11F8BC
:103E2000012B24BF00F8013B00F801CB48BF00F88C
:103E3000012B704702F0FF0343EA032242EA0242E9
:103E400000F0D8B870477047704770472DE9F047C9
:103E50000D4699469246044600F1240801688806FA
:103E600004D5E06921F01001216000E00120A842A2
:103E700001DD471B00E00027A1697A1902EB090068
:103E8000081AA0612078C00602D42046AFF3008053
:103E9000002608E0D4E901211AF806009047206ABC
:103EA000401C761C20624E45F4DB2078C0060AD503
:103EB0002046AFF3008006E0D4E90121302090478E
:103EC000206A401C2062381EA7F10107F4DC07E0DD
:103ED000D4E9012118F805009047206A401C2062AF
:103EE000281EA5F10105F3DC2046AFF30080207801
:103EF000000602D50220BDE8F0870120FBE70000A4
:103F000001694A1C02610878704700B58FB0CDE99D
:103F100001310021059105497944CDE9031011468D
:103F20006846FFF765FE0FB000BD0000E5FFFFFF2C
:103F30000A6802F8010B0A60704710B5436913B1B3
:103F4000AFF3008001E0FFF787FE012010BD12787B
:103F500000F124010A7000224A700122EDE7116885
:103F60004FF0FF32E9E70000074B70B50D467B4488
:103F7000FFF7CBFF0446284600F05CF810B14FF085
:103F8000FF3070BD204670BD51CAFFFF10B5203A0A
:103F9000C0F00B80B1E81850203AA0E81850B1E802
:103FA0001850A0E81850BFF4F5AF5FEA027C24BFB8
:103FB000B1E81850A0E8185044BF18C918C0BDE8AF
:103FC00010405FEA827C24BF51F8043B40F8043B78
:103FD00008BF7047D20728BF31F8023B48BF11F82D
:103FE000012B28BF20F8023B48BF00F8012B704787
:103FF0004FF000020429C0F0128010F0030C00F012
:104000001F80CCF1040CBCF1020F18BF00F8012B8B
:10401000A8BF20F8022BA1EB0C0100F011B85FEA59
:10402000C17C24BF00F8012B00F8012B48BF00F829
:10403000012B7047007B00F0800070474FF00002BA
:1040400000B5134694469646203922BFA0E80C508E
:10405000A0E80C50B1F12001BFF4F7AF090728BF69
:10406000A0E80C5048BF0CC05DF804EB890028BFE5
:1040700040F8042B08BF704748BF20F8022B11F00E
:10408000804F18BF00F8012B7047754600F028F8E4
:10409000AE4605006946534620F00700854618B035
:1040A00020B5FCF725FDBDE820404FF000064FF09D
:1040B00000074FF000084FF0000B21F00701AC465D
:1040C000ACE8C009ACE8C009ACE8C009ACE8C0097C
:1040D0008D4670470446AFF300802046FCF77DF81C
:1040E00000487047DC540020084100080000002010
:1040F000C80000006C010008D0410008C800002082
:10410000785A00008801000800000000000000004C
:10411000000000000000000000000000000000009F
:10412000000000000000000000A24A04000000009F
:104130000000000001020304060708090000000057
:10414000000000000000000002040608000000005B
:10415000010203040102030406070809000000002D
:10416000000000000000000000000000000000004F
:10417000000000000000000000000000000000003F
:10418000000000000000000000000000000000002F
:10419000000000000000000000000000000000001F
:1041A000000000000000000000000000000000000F
:1041B000AAAAAAAA00000000000000000000000057
:1041C00000000000000000000000000000000000EF
:0400000508000131BD
:00000001FF
