Component: ARM Compiler 5.05 update 1 (build 106) Tool: armlink [4d0efa]

==============================================================================

Section Cross References

    main.o(.text) refers to _printf_percent.o(.ARM.Collect$$_printf_percent$$00000000) for _printf_percent
    main.o(.text) refers to _printf_d.o(.ARM.Collect$$_printf_percent$$00000009) for _printf_d
    main.o(.text) refers to _printf_dec.o(.text) for _printf_int_dec
    main.o(.text) refers to stm32f10x_gpio.o(.text) for GPIO_ReadInputDataBit
    main.o(.text) refers to queue.o(.text) for xQueueGenericSend
    main.o(.text) refers to noretval__2printf.o(.text) for __2printf
    main.o(.text) refers to tasks.o(.text) for vTaskDelay
    main.o(.text) refers to timers.o(.text) for xTimerGenericCommand
    main.o(.text) refers to dht11.o(.text) for dht11_read_data
    main.o(.text) refers to port.o(.text) for vPortEnterCritical
    main.o(.text) refers to misc.o(.text) for NVIC_PriorityGroupConfig
    main.o(.text) refers to delay.o(.text) for delay_init
    main.o(.text) refers to usart.o(.text) for uart_init
    main.o(.text) refers to led.o(.text) for LED_Init
    main.o(.text) refers to fire.o(.text) for fire_init
    main.o(.text) refers to main.o(.data) for .data
    system_stm32f10x.o(.text) refers to system_stm32f10x.o(.data) for .data
    led.o(.text) refers to stm32f10x_rcc.o(.text) for RCC_APB2PeriphClockCmd
==============================================================================

Removing Unused input sections from the image.

    Removing sys.o(.emb_text), (6 bytes).
    Removing sys.o(.text), (12 bytes).
    Removing core_cm3.o(.emb_text), (32 bytes).
    Removing stm32f10x_adc.o(.text), (816 bytes).
    Removing stm32f10x_bkp.o(.text), (152 bytes).
    Removing stm32f10x_can.o(.text), (1800 bytes).
    Removing stm32f10x_cec.o(.text), (248 bytes).
    Removing stm32f10x_crc.o(.text), (64 bytes).
    Removing stm32f10x_dac.o(.text), (252 bytes).
    Removing stm32f10x_dbgmcu.o(.text), (40 bytes).
    Removing stm32f10x_dma.o(.text), (456 bytes).
    Removing stm32f10x_exti.o(.text), (232 bytes).
    Removing stm32f10x_flash.o(.text), (1152 bytes).
    Removing stm32f10x_fsmc.o(.text), (1148 bytes).
    Removing stm32f10x_i2c.o(.text), (808 bytes).
    Removing stm32f10x_iwdg.o(.text), (60 bytes).
    Removing stm32f10x_pwr.o(.text), (172 bytes).
    Removing stm32f10x_rtc.o(.text), (272 bytes).
==============================================================================

Image Symbol Table

    Local Symbols

    Symbol Name                              Value     Ov Type        Size  Object(Section)

    ../clib/angel/boardlib.s                 0x00000000   Number         0  boardinit3.o ABSOLUTE
    ../clib/angel/boardlib.s                 0x00000000   Number         0  boardinit2.o ABSOLUTE
    ../clib/angel/boardlib.s                 0x00000000   Number         0  boardinit1.o ABSOLUTE
    ../clib/angel/boardlib.s                 0x00000000   Number         0  boardshut.o ABSOLUTE
    ../clib/angel/handlers.s                 0x00000000   Number         0  __scatter_zi.o ABSOLUTE
    ../clib/angel/handlers.s                 0x00000000   Number         0  __scatter_copy.o ABSOLUTE
    ../clib/angel/kernel.s                   0x00000000   Number         0  __rtentry2.o ABSOLUTE
    ../clib/angel/kernel.s                   0x00000000   Number         0  __rtentry4.o ABSOLUTE
    ../clib/angel/kernel.s                   0x00000000   Number         0  __rtentry.o ABSOLUTE
    ../clib/angel/kernel.s                   0x00000000   Number         0  rtexit.o ABSOLUTE
    ../clib/angel/kernel.s                   0x00000000   Number         0  rtexit2.o ABSOLUTE
    ../clib/angel/rt.s                       0x00000000   Number         0  rt_raise.o ABSOLUTE
    ../clib/angel/scatter.s                  0x00000000   Number         0  __scatter.o ABSOLUTE
    ../clib/angel/startup.s                  0x00000000   Number         0  __main.o ABSOLUTE
    ../clib/angel/sys.s                      0x00000000   Number         0  use_no_semi.o ABSOLUTE
    ../clib/angel/sys.s                      0x00000000   Number         0  sys_stackheap_outer.o ABSOLUTE
    ../clib/angel/sys.s                      0x00000000   Number         0  libspace.o ABSOLUTE
    ../clib/angel/sys.s                      0x00000000   Number         0  indicate_semi.o ABSOLUTE
    ../clib/angel/sys.s                      0x00000000   Number         0  use_no_semi_2.o ABSOLUTE
    ../clib/angel/sysapp.c                   0x00000000   Number         0  sys_command.o ABSOLUTE
    ../clib/angel/sysapp.c                   0x00000000   Number         0  sys_wrch.o ABSOLUTE
    ../clib/armsys.c                         0x00000000   Number         0  argv_veneer.o ABSOLUTE
    ../clib/armsys.c                         0x00000000   Number         0  _get_argv_nomalloc.o ABSOLUTE
    ../clib/armsys.c                         0x00000000   Number         0  no_argv.o ABSOLUTE
    ../clib/armsys.c                         0x00000000   Number         0  argv_veneer.o ABSOLUTE
    ../clib/heapalloc.c                      0x00000000   Number         0  hrguard.o ABSOLUTE
    ../clib/heapaux.c                        0x00000000   Number         0  heapauxi.o ABSOLUTE
    ../clib/libinit.s                        0x00000000   Number         0  libshutdown2.o ABSOLUTE
    ../clib/libinit.s                        0x00000000   Number         0  libshutdown.o ABSOLUTE
    ../clib/libinit.s                        0x00000000   Number         0  libinit2.o ABSOLUTE
    ../clib/libinit.s                        0x00000000   Number         0  libinit.o ABSOLUTE
    ../clib/memcpset.s                       0x00000000   Number         0  aeabi_memset.o ABSOLUTE
    ../clib/memcpset.s                       0x00000000   Number         0  rt_memcpy_v6.o ABSOLUTE
    ../clib/memcpset.s                       0x00000000   Number         0  rt_memcpy_w.o ABSOLUTE
    ../clib/memcpset.s                       0x00000000   Number         0  rt_memclr.o ABSOLUTE
    ../clib/memcpset.s                       0x00000000   Number         0  rt_memclr_w.o ABSOLUTE
    ../clib/printf.c                         0x00000000   Number         0  __printf_flags_ss.o ABSOLUTE
    ../clib/printf.c                         0x00000000   Number         0  _printf_intcommon.o ABSOLUTE
    ../clib/printf.c                         0x00000000   Number         0  __printf_ss_wp.o ABSOLUTE
    ../clib/printf.c                         0x00000000   Number         0  __printf_flags_ss_wp.o ABSOLUTE
    ../clib/printf.c                         0x00000000   Number         0  __printf_flags_wp.o ABSOLUTE
    ../clib/printf.c                         0x00000000   Number         0  __printf_wp.o ABSOLUTE
    ../clib/printf.c                         0x00000000   Number         0  __printf_ss.o ABSOLUTE
    ../clib/printf.c                         0x00000000   Number         0  __printf_flags.o ABSOLUTE
    ../clib/printf.c                         0x00000000   Number         0  _printf_dec.o ABSOLUTE
    ../clib/printf.c                         0x00000000   Number         0  _printf_str.o ABSOLUTE
    ../clib/printf.c                         0x00000000   Number         0  __printf.o ABSOLUTE
    ../clib/printf.c                         0x00000000   Number         0  noretval__2sprintf.o ABSOLUTE
    ../clib/printf.c                         0x00000000   Number         0  __printf_nopercent.o ABSOLUTE
    ../clib/printf.c                         0x00000000   Number         0  noretval__2printf.o ABSOLUTE
    ../clib/printf.c                         0x00000000   Number         0  __2printf.o ABSOLUTE
    ../clib/printf.c                         0x00000000   Number         0  __2sprintf.o ABSOLUTE
    ../clib/printf.c                         0x00000000   Number         0  _printf_char_file.o ABSOLUTE
    ../clib/printf.c                         0x00000000   Number         0  _printf_char.o ABSOLUTE
    ../clib/printf.c                         0x00000000   Number         0  _sputc.o ABSOLUTE
    ../clib/printf.c                         0x00000000   Number         0  _printf_char_common.o ABSOLUTE
    ../clib/printf_percent.s                 0x00000000   Number         0  _printf_c.o ABSOLUTE
    ../clib/printf_percent.s                 0x00000000   Number         0  _printf_d.o ABSOLUTE
    ../clib/printf_percent.s                 0x00000000   Number         0  _printf_percent.o ABSOLUTE
    ../clib/printf_percent.s                 0x00000000   Number         0  _printf_percent_end.o ABSOLUTE
    ../clib/printf_percent.s                 0x00000000   Number         0  _printf_s.o ABSOLUTE
    ../clib/printf_percent.s                 0x00000000   Number         0  _printf_u.o ABSOLUTE
    ../clib/signal.c                         0x00000000   Number         0  defsig_cppl_inner.o ABSOLUTE
    ../clib/signal.c                         0x00000000   Number         0  defsig_rtred_inner.o ABSOLUTE
    ../clib/signal.c                         0x00000000   Number         0  defsig_fpe_inner.o ABSOLUTE
    ../clib/signal.c                         0x00000000   Number         0  defsig_rtmem_outer.o ABSOLUTE
    ../clib/signal.c                         0x00000000   Number         0  defsig_abrt_inner.o ABSOLUTE
    ../clib/signal.c                         0x00000000   Number         0  defsig_stak_inner.o ABSOLUTE
    ../clib/signal.c                         0x00000000   Number         0  defsig_segv_inner.o ABSOLUTE
    ../clib/signal.c                         0x00000000   Number         0  defsig_general.o ABSOLUTE
    ../clib/signal.c                         0x00000000   Number         0  __raise.o ABSOLUTE
    ../clib/signal.c                         0x00000000   Number         0  defsig_other.o ABSOLUTE
    ../clib/signal.c                         0x00000000   Number         0  defsig_rtmem_inner.o ABSOLUTE
    ../clib/signal.c                         0x00000000   Number         0  defsig_pvfn_inner.o ABSOLUTE
    ../clib/signal.c                         0x00000000   Number         0  defsig_exit.o ABSOLUTE
    ../clib/signal.c                         0x00000000   Number         0  defsig_rtmem_formal.o ABSOLUTE
    ../clib/signal.s                         0x00000000   Number         0  defsig.o ABSOLUTE
    ../clib/stdio.c                          0x00000000   Number         0  ferror.o ABSOLUTE
    ../clib/stdio.c                          0x00000000   Number         0  ferror_locked.o ABSOLUTE
    ../clib/stdlib.c                         0x00000000   Number         0  exit.o ABSOLUTE
    ../clib/string.c                         0x00000000   Number         0  strcpy.o ABSOLUTE
    ../clib/string.c                         0x00000000   Number         0  strlen.o ABSOLUTE
    ../fplib/fpinit.s                        0x00000000   Number         0  fpinit.o ABSOLUTE
    ..\CORE\core_cm3.c                       0x00000000   Number         0  core_cm3.o ABSOLUTE
    ..\CORE\startup_stm32f10x_hd.s           0x00000000   Number         0  startup_stm32f10x_hd.o ABSOLUTE
    ..\FreeRTOS\croutine.c                   0x00000000   Number         0  croutine.o ABSOLUTE
    ..\FreeRTOS\event_groups.c               0x00000000   Number         0  event_groups.o ABSOLUTE
    ..\FreeRTOS\list.c                       0x00000000   Number         0  list.o ABSOLUTE
    ..\FreeRTOS\portable\MemMang\heap_4.c    0x00000000   Number         0  heap_4.o ABSOLUTE
    ..\FreeRTOS\portable\RVDS\ARM_CM3\port.c 0x00000000   Number         0  port.o ABSOLUTE
    ..\FreeRTOS\queue.c                      0x00000000   Number         0  queue.o ABSOLUTE
    ..\FreeRTOS\tasks.c                      0x00000000   Number         0  tasks.o ABSOLUTE
    ..\FreeRTOS\timers.c                     0x00000000   Number         0  timers.o ABSOLUTE
    ..\HARDWARE\DHT11\dht11.c                0x00000000   Number         0  dht11.o ABSOLUTE
    ..\HARDWARE\FIRE\fire.c                  0x00000000   Number         0  fire.o ABSOLUTE
    ..\HARDWARE\LED\led.c                    0x00000000   Number         0  led.o ABSOLUTE
    ..\STM32F10x_FWLib\src\misc.c            0x00000000   Number         0  misc.o ABSOLUTE
    ..\STM32F10x_FWLib\src\stm32f10x_adc.c   0x00000000   Number         0  stm32f10x_adc.o ABSOLUTE
    ..\STM32F10x_FWLib\src\stm32f10x_bkp.c   0x00000000   Number         0  stm32f10x_bkp.o ABSOLUTE
    ..\STM32F10x_FWLib\src\stm32f10x_can.c   0x00000000   Number         0  stm32f10x_can.o ABSOLUTE
    ..\STM32F10x_FWLib\src\stm32f10x_cec.c   0x00000000   Number         0  stm32f10x_cec.o ABSOLUTE
    ..\STM32F10x_FWLib\src\stm32f10x_crc.c   0x00000000   Number         0  stm32f10x_crc.o ABSOLUTE
    ..\STM32F10x_FWLib\src\stm32f10x_dac.c   0x00000000   Number         0  stm32f10x_dac.o ABSOLUTE
    ..\STM32F10x_FWLib\src\stm32f10x_dbgmcu.c 0x00000000   Number         0  stm32f10x_dbgmcu.o ABSOLUTE
    ..\STM32F10x_FWLib\src\stm32f10x_dma.c   0x00000000   Number         0  stm32f10x_dma.o ABSOLUTE
    ..\STM32F10x_FWLib\src\stm32f10x_exti.c  0x00000000   Number         0  stm32f10x_exti.o ABSOLUTE
    ..\STM32F10x_FWLib\src\stm32f10x_flash.c 0x00000000   Number         0  stm32f10x_flash.o ABSOLUTE
    ..\STM32F10x_FWLib\src\stm32f10x_fsmc.c  0x00000000   Number         0  stm32f10x_fsmc.o ABSOLUTE
    ..\STM32F10x_FWLib\src\stm32f10x_gpio.c  0x00000000   Number         0  stm32f10x_gpio.o ABSOLUTE
    ..\STM32F10x_FWLib\src\stm32f10x_i2c.c   0x00000000   Number         0  stm32f10x_i2c.o ABSOLUTE
    ..\STM32F10x_FWLib\src\stm32f10x_iwdg.c  0x00000000   Number         0  stm32f10x_iwdg.o ABSOLUTE
    ..\STM32F10x_FWLib\src\stm32f10x_pwr.c   0x00000000   Number         0  stm32f10x_pwr.o ABSOLUTE
    ..\STM32F10x_FWLib\src\stm32f10x_rcc.c   0x00000000   Number         0  stm32f10x_rcc.o ABSOLUTE
    ..\STM32F10x_FWLib\src\stm32f10x_rtc.c   0x00000000   Number         0  stm32f10x_rtc.o ABSOLUTE
    ..\STM32F10x_FWLib\src\stm32f10x_sdio.c  0x00000000   Number         0  stm32f10x_sdio.o ABSOLUTE
    ..\STM32F10x_FWLib\src\stm32f10x_spi.c   0x00000000   Number         0  stm32f10x_spi.o ABSOLUTE
    ..\STM32F10x_FWLib\src\stm32f10x_tim.c   0x00000000   Number         0  stm32f10x_tim.o ABSOLUTE
    ..\STM32F10x_FWLib\src\stm32f10x_usart.c 0x00000000   Number         0  stm32f10x_usart.o ABSOLUTE
    ..\STM32F10x_FWLib\src\stm32f10x_wwdg.c  0x00000000   Number         0  stm32f10x_wwdg.o ABSOLUTE
    ..\SYSTEM\delay\delay.c                  0x00000000   Number         0  delay.o ABSOLUTE
    ..\SYSTEM\sys\sys.c                      0x00000000   Number         0  sys.o ABSOLUTE
    ..\SYSTEM\usart\usart.c                  0x00000000   Number         0  usart.o ABSOLUTE
    ..\\CORE\\core_cm3.c                     0x00000000   Number         0  core_cm3.o ABSOLUTE
    ..\\FreeRTOS\\portable\\RVDS\\ARM_CM3\\port.c 0x00000000   Number         0  port.o ABSOLUTE
    ..\\SYSTEM\\sys\\sys.c                   0x00000000   Number         0  sys.o ABSOLUTE
    dc.s                                     0x00000000   Number         0  dc.o ABSOLUTE
    main.c                                   0x00000000   Number         0  main.o ABSOLUTE
    stm32f10x_it.c                           0x00000000   Number         0  stm32f10x_it.o ABSOLUTE
    system_stm32f10x.c                       0x00000000   Number         0  system_stm32f10x.o ABSOLUTE
    RESET                                    0x08000000   Section      304  startup_stm32f10x_hd.o(RESET)
    !!!main                                  0x08000130   Section        8  __main.o(!!!main)
    !!!scatter                               0x08000138   Section       52  __scatter.o(!!!scatter)
    !!handler_copy                           0x0800016c   Section       26  __scatter_copy.o(!!handler_copy)
    !!handler_zi                             0x08000188   Section       28  __scatter_zi.o(!!handler_zi)
    .ARM.Collect$$_printf_percent$$00000000  0x080001a4   Section        0  _printf_percent.o(.ARM.Collect$$_printf_percent$$00000000)
    .ARM.Collect$$_printf_percent$$00000009  0x080001a4   Section        6  _printf_d.o(.ARM.Collect$$_printf_percent$$00000009)
    .ARM.Collect$$_printf_percent$$0000000A  0x080001aa   Section        6  _printf_u.o(.ARM.Collect$$_printf_percent$$0000000A)
    .ARM.Collect$$_printf_percent$$00000013  0x080001b0   Section        6  _printf_c.o(.ARM.Collect$$_printf_percent$$00000013)
    .ARM.Collect$$_printf_percent$$00000014  0x080001b6   Section        6  _printf_s.o(.ARM.Collect$$_printf_percent$$00000014)
    .ARM.Collect$$_printf_percent$$00000017  0x080001bc   Section        4  _printf_percent_end.o(.ARM.Collect$$_printf_percent$$00000017)
    .ARM.Collect$$libinit$$00000000          0x080001c0   Section        2  libinit.o(.ARM.Collect$$libinit$$00000000)
    .ARM.Collect$$libinit$$00000002          0x080001c2   Section        0  libinit2.o(.ARM.Collect$$libinit$$00000002)
    .ARM.Collect$$libinit$$00000004          0x080001c2   Section        0  libinit2.o(.ARM.Collect$$libinit$$00000004)
    .ARM.Collect$$libinit$$0000000A          0x080001c2   Section        0  libinit2.o(.ARM.Collect$$libinit$$0000000A)
    .ARM.Collect$$libinit$$0000000C          0x080001c2   Section        0  libinit2.o(.ARM.Collect$$libinit$$0000000C)
    .ARM.Collect$$libinit$$0000000E          0x080001c2   Section        0  libinit2.o(.ARM.Collect$$libinit$$0000000E)
    .ARM.Collect$$libinit$$00000011          0x080001c2   Section        0  libinit2.o(.ARM.Collect$$libinit$$00000011)
    .ARM.Collect$$libinit$$00000013          0x080001c2   Section        0  libinit2.o(.ARM.Collect$$libinit$$00000013)
    .ARM.Collect$$libinit$$00000015          0x080001c2   Section        0  libinit2.o(.ARM.Collect$$libinit$$00000015)
    .ARM.Collect$$libinit$$00000017          0x080001c2   Section        0  libinit2.o(.ARM.Collect$$libinit$$00000017)
    .ARM.Collect$$libinit$$00000019          0x080001c2   Section        0  libinit2.o(.ARM.Collect$$libinit$$00000019)
    .ARM.Collect$$libinit$$0000001B          0x080001c2   Section        0  libinit2.o(.ARM.Collect$$libinit$$0000001B)
    .ARM.Collect$$libinit$$0000001D          0x080001c2   Section        0  libinit2.o(.ARM.Collect$$libinit$$0000001D)
    .ARM.Collect$$libinit$$0000001F          0x080001c2   Section        0  libinit2.o(.ARM.Collect$$libinit$$0000001F)
    .ARM.Collect$$libinit$$00000021          0x080001c2   Section        0  libinit2.o(.ARM.Collect$$libinit$$00000021)
    .ARM.Collect$$libinit$$00000023          0x080001c2   Section        0  libinit2.o(.ARM.Collect$$libinit$$00000023)
    .ARM.Collect$$libinit$$00000025          0x080001c2   Section        0  libinit2.o(.ARM.Collect$$libinit$$00000025)
    .ARM.Collect$$libinit$$0000002C          0x080001c2   Section        0  libinit2.o(.ARM.Collect$$libinit$$0000002C)
    .ARM.Collect$$libinit$$0000002E          0x080001c2   Section        0  libinit2.o(.ARM.Collect$$libinit$$0000002E)
    .ARM.Collect$$libinit$$00000030          0x080001c2   Section        0  libinit2.o(.ARM.Collect$$libinit$$00000030)
    .ARM.Collect$$libinit$$00000032          0x080001c2   Section        0  libinit2.o(.ARM.Collect$$libinit$$00000032)
    .ARM.Collect$$libinit$$00000033          0x080001c2   Section        2  libinit2.o(.ARM.Collect$$libinit$$00000033)
    .ARM.Collect$$libshutdown$$00000000      0x080001c4   Section        2  libshutdown.o(.ARM.Collect$$libshutdown$$00000000)
    .ARM.Collect$$libshutdown$$00000003      0x080001c6   Section        0  libshutdown2.o(.ARM.Collect$$libshutdown$$00000003)
    .ARM.Collect$$libshutdown$$00000006      0x080001c6   Section        0  libshutdown2.o(.ARM.Collect$$libshutdown$$00000006)
    .ARM.Collect$$libshutdown$$00000009      0x080001c6   Section        0  libshutdown2.o(.ARM.Collect$$libshutdown$$00000009)
    .ARM.Collect$$libshutdown$$0000000B      0x080001c6   Section        0  libshutdown2.o(.ARM.Collect$$libshutdown$$0000000B)
    .ARM.Collect$$libshutdown$$0000000E      0x080001c6   Section        0  libshutdown2.o(.ARM.Collect$$libshutdown$$0000000E)
    .ARM.Collect$$libshutdown$$0000000F      0x080001c6   Section        2  libshutdown2.o(.ARM.Collect$$libshutdown$$0000000F)
    .ARM.Collect$$rtentry$$00000000          0x080001c8   Section        0  __rtentry.o(.ARM.Collect$$rtentry$$00000000)
    .ARM.Collect$$rtentry$$00000002          0x080001c8   Section        0  __rtentry2.o(.ARM.Collect$$rtentry$$00000002)
    .ARM.Collect$$rtentry$$00000004          0x080001c8   Section        6  __rtentry4.o(.ARM.Collect$$rtentry$$00000004)
    .ARM.Collect$$rtentry$$00000009          0x080001ce   Section        0  __rtentry2.o(.ARM.Collect$$rtentry$$00000009)
    .ARM.Collect$$rtentry$$0000000A          0x080001ce   Section        4  __rtentry2.o(.ARM.Collect$$rtentry$$0000000A)
    .ARM.Collect$$rtentry$$0000000C          0x080001d2   Section        0  __rtentry2.o(.ARM.Collect$$rtentry$$0000000C)
    .ARM.Collect$$rtentry$$0000000D          0x080001d2   Section        8  __rtentry2.o(.ARM.Collect$$rtentry$$0000000D)
    .ARM.Collect$$rtexit$$00000000           0x080001da   Section        2  rtexit.o(.ARM.Collect$$rtexit$$00000000)
    .ARM.Collect$$rtexit$$00000002           0x080001dc   Section        0  rtexit2.o(.ARM.Collect$$rtexit$$00000002)
    .ARM.Collect$$rtexit$$00000003           0x080001dc   Section        4  rtexit2.o(.ARM.Collect$$rtexit$$00000003)
    .ARM.Collect$$rtexit$$00000004           0x080001e0   Section        6  rtexit2.o(.ARM.Collect$$rtexit$$00000004)
    .emb_text                                0x080001e8   Section      150  port.o(.emb_text)
    .text                                    0x08000280   Section        0  main.o(.text)
    .text                                    0x0800056c   Section        0  stm32f10x_it.o(.text)
    .text                                    0x08000578   Section        0  system_stm32f10x.o(.text)
    SetSysClockTo72                          0x08000579   Thumb Code   160  system_stm32f10x.o(.text)
    .text                                    0x080006d0   Section        0  led.o(.text)
    .text                                    0x08000728   Section        0  fire.o(.text)
    .text                                    0x08000754   Section        0  dht11.o(.text)
    .text                                    0x080008e8   Section        0  delay.o(.text)
    .text                                    0x080009c0   Section        0  usart.o(.text)
    .text                                    0x08000ad4   Section       64  startup_stm32f10x_hd.o(.text)
    .text                                    0x08000b14   Section        0  misc.o(.text)
    .text                                    0x08000bc4   Section        0  stm32f10x_gpio.o(.text)
    .text                                    0x08000e28   Section        0  stm32f10x_rcc.o(.text)
    .text                                    0x080010e0   Section        0  stm32f10x_usart.o(.text)
    .text                                    0x08001408   Section        0  list.o(.text)
    .text                                    0x08001490   Section        0  queue.o(.text)
    prvCopyDataToQueue                       0x08001563   Thumb Code   106  queue.o(.text)
    prvNotifyQueueSetContainer               0x080015cd   Thumb Code   108  queue.o(.text)
    prvUnlockQueue                           0x08001639   Thumb Code   120  queue.o(.text)
    prvCopyDataFromQueue                     0x08001895   Thumb Code    38  queue.o(.text)
    prvIsQueueEmpty                          0x08001f19   Thumb Code    26  queue.o(.text)
    .text                                    0x08001f3c   Section        0  tasks.o(.text)
    prvAddNewTaskToReadyList                 0x08001f3d   Thumb Code   192  tasks.o(.text)
    prvAddCurrentTaskToDelayedList           0x0800225d   Thumb Code   102  tasks.o(.text)
    prvTaskIsTaskSuspended                   0x08002609   Thumb Code    48  tasks.o(.text)
    prvIdleTask                              0x0800272b   Thumb Code    30  tasks.o(.text)
    prvListTasksWithinSingleList             0x0800289f   Thumb Code    84  tasks.o(.text)
    prvInitialiseNewTask                     0x08003147   Thumb Code   152  tasks.o(.text)
    prvResetNextTaskUnblockTime              0x080031df   Thumb Code    26  tasks.o(.text)
    prvDeleteTCB                             0x080031f9   Thumb Code    20  tasks.o(.text)
    prvCheckTasksWaitingTermination          0x0800320d   Thumb Code    76  tasks.o(.text)
    .text                                    0x08003288   Section        0  timers.o(.text)
    prvInsertTimerInActiveList               0x08003289   Thumb Code    52  timers.o(.text)
    prvProcessReceivedCommands               0x0800331f   Thumb Code   196  timers.o(.text)
    prvTimerTask                             0x080033e3   Thumb Code    34  timers.o(.text)
    prvCheckForValidListAndQueue             0x08003405   Thumb Code    62  timers.o(.text)
    prvSampleTimeNow                         0x080035e7   Thumb Code    36  timers.o(.text)
    prvProcessTimerOrBlockTask               0x0800360b   Thumb Code   210  timers.o(.text)
    prvSwitchTimerLists                      0x080036dd   Thumb Code   102  timers.o(.text)
    prvProcessExpiredTimer                   0x08003743   Thumb Code    88  timers.o(.text)
    .text                                    0x080037a0   Section        0  port.o(.text)
    prvTaskExitError                         0x080037a1   Thumb Code    34  port.o(.text)
    .text                                    0x08003998   Section        0  heap_4.o(.text)
    prvInsertBlockIntoFreeList               0x08003999   Thumb Code    72  heap_4.o(.text)
    prvHeapInit                              0x08003b29   Thumb Code    66  heap_4.o(.text)
    .text                                    0x08003bac   Section        2  use_no_semi_2.o(.text)
    .text                                    0x08003bb0   Section        0  noretval__2printf.o(.text)
    .text                                    0x08003bc8   Section        0  noretval__2sprintf.o(.text)
    .text                                    0x08003bf0   Section        0  __printf.o(.text)
    .text                                    0x08003c58   Section        0  _printf_str.o(.text)
    .text                                    0x08003cac   Section        0  _printf_dec.o(.text)
    .text                                    0x08003d24   Section        0  strcpy.o(.text)
    .text                                    0x08003d6c   Section        0  strlen.o(.text)
    .text                                    0x08003daa   Section      138  rt_memcpy_v6.o(.text)
    .text                                    0x08003e34   Section       16  aeabi_memset.o(.text)
    .text                                    0x08003e44   Section        0  heapauxi.o(.text)
    .text                                    0x08003e4a   Section        2  use_no_semi.o(.text)
    .text                                    0x08003e4c   Section        0  _printf_intcommon.o(.text)
    .text                                    0x08003f00   Section        0  _printf_char_common.o(.text)
    _printf_input_char                       0x08003f01   Thumb Code    10  _printf_char_common.o(.text)
    .text                                    0x08003f30   Section        0  _sputc.o(.text)
    .text                                    0x08003f3a   Section        0  _printf_char.o(.text)
    .text                                    0x08003f68   Section        0  _printf_char_file.o(.text)
    .text                                    0x08003f8c   Section      100  rt_memcpy_w.o(.text)
    .text                                    0x08003ff0   Section       68  rt_memclr.o(.text)
    .text                                    0x08004034   Section        0  ferror.o(.text)
    .text                                    0x0800403c   Section       78  rt_memclr_w.o(.text)
    .text                                    0x0800408a   Section       74  sys_stackheap_outer.o(.text)
    .text                                    0x080040d4   Section        0  exit.o(.text)
    .text                                    0x080040e0   Section        8  libspace.o(.text)
    .data                                    0x20000000   Section       32  main.o(.data)
    .data                                    0x20000020   Section       20  system_stm32f10x.o(.data)
    .data                                    0x20000034   Section        4  delay.o(.data)
    fac_us                                   0x20000034   Data           1  delay.o(.data)
    fac_ms                                   0x20000036   Data           2  delay.o(.data)
    .data                                    0x20000038   Section        2  usart.o(.data)
    .data                                    0x2000003c   Section        4  usart.o(.data)
    .data                                    0x20000040   Section       20  stm32f10x_rcc.o(.data)
    ADCPrescTable                            0x20000040   Data           4  stm32f10x_rcc.o(.data)
    APBAHBPrescTable                         0x20000044   Data          16  stm32f10x_rcc.o(.data)
    .data                                    0x20000054   Section       60  tasks.o(.data)
    uxDeletedTasksWaitingCleanUp             0x20000058   Data           4  tasks.o(.data)
    uxCurrentNumberOfTasks                   0x2000005c   Data           4  tasks.o(.data)
    xTickCount                               0x20000060   Data           4  tasks.o(.data)
    uxTopReadyPriority                       0x20000064   Data           4  tasks.o(.data)
    xSchedulerRunning                        0x20000068   Data           4  tasks.o(.data)
    uxPendedTicks                            0x2000006c   Data           4  tasks.o(.data)
    xYieldPending                            0x20000070   Data           4  tasks.o(.data)
    xNumOfOverflows                          0x20000074   Data           4  tasks.o(.data)
    uxTaskNumber                             0x20000078   Data           4  tasks.o(.data)
    xNextTaskUnblockTime                     0x2000007c   Data           4  tasks.o(.data)
    xIdleTaskHandle                          0x20000080   Data           4  tasks.o(.data)
    uxSchedulerSuspended                     0x20000084   Data           4  tasks.o(.data)
    pxDelayedTaskList                        0x20000088   Data           4  tasks.o(.data)
    pxOverflowDelayedTaskList                0x2000008c   Data           4  tasks.o(.data)
    .data                                    0x20000090   Section       20  timers.o(.data)
    xTimerQueue                              0x20000090   Data           4  timers.o(.data)
    xTimerTaskHandle                         0x20000094   Data           4  timers.o(.data)
    xLastTime                                0x20000098   Data           4  timers.o(.data)
    pxCurrentTimerList                       0x2000009c   Data           4  timers.o(.data)
    pxOverflowTimerList                      0x200000a0   Data           4  timers.o(.data)
    .data                                    0x200000a4   Section       12  port.o(.data)
    ucMaxSysCallPriority                     0x200000a4   Data           1  port.o(.data)
    uxCriticalNesting                        0x200000a8   Data           4  port.o(.data)
    ulMaxPRIGROUPValue                       0x200000ac   Data           4  port.o(.data)
    .data                                    0x200000b0   Section       24  heap_4.o(.data)
    pxEnd                                    0x200000b0   Data           4  heap_4.o(.data)
    xFreeBytesRemaining                      0x200000b4   Data           4  heap_4.o(.data)
    xMinimumEverFreeBytesRemaining           0x200000b8   Data           4  heap_4.o(.data)
    xBlockAllocatedBit                       0x200000bc   Data           4  heap_4.o(.data)
    xStart                                   0x200000c0   Data           8  heap_4.o(.data)
    .bss                                     0x200000c8   Section      200  usart.o(.bss)
    .bss                                     0x20000190   Section       64  queue.o(.bss)
    .bss                                     0x200001d0   Section      740  tasks.o(.bss)
    pxReadyTasksLists                        0x200001d0   Data         640  tasks.o(.bss)
    xDelayedTaskList1                        0x20000450   Data          20  tasks.o(.bss)
    xDelayedTaskList2                        0x20000464   Data          20  tasks.o(.bss)
    xPendingReadyList                        0x20000478   Data          20  tasks.o(.bss)
    xTasksWaitingTermination                 0x2000048c   Data          20  tasks.o(.bss)
    xSuspendedTaskList                       0x200004a0   Data          20  tasks.o(.bss)
    .bss                                     0x200004b4   Section       40  timers.o(.bss)
    xActiveTimerList1                        0x200004b4   Data          20  timers.o(.bss)
    xActiveTimerList2                        0x200004c8   Data          20  timers.o(.bss)
    .bss                                     0x200004dc   Section    20480  heap_4.o(.bss)
    ucHeap                                   0x200004dc   Data       20480  heap_4.o(.bss)
    .bss                                     0x200054dc   Section       96  libspace.o(.bss)
    HEAP                                     0x20005540   Section      512  startup_stm32f10x_hd.o(HEAP)
    Heap_Mem                                 0x20005540   Data         512  startup_stm32f10x_hd.o(HEAP)
    STACK                                    0x20005740   Section     1024  startup_stm32f10x_hd.o(STACK)
    Stack_Mem                                0x20005740   Data        1024  startup_stm32f10x_hd.o(STACK)
    __initial_sp                             0x20005b40   Data           0  startup_stm32f10x_hd.o(STACK)

    Global Symbols

    Symbol Name                              Value     Ov Type        Size  Object(Section)

    BuildAttributes$$THM_ISAv4$P$D$K$B$S$PE$A:L22UL41UL21$X:L11$S22US41US21$IEEE1$IW$USESV6$~STKCKD$USESV7$~SHL$OSPACE$ROPI$EBA8$UX$STANDARDLIB$REQ8$PRES8$EABIv2 0x00000000   Number         0  anon$$obj.o ABSOLUTE
    __ARM_use_no_argv                        0x00000000   Number         0  main.o ABSOLUTE
    __ARM_exceptions_init                     - Undefined Weak Reference
    __alloca_initialize                       - Undefined Weak Reference
    __arm_preinit_                            - Undefined Weak Reference
    __cpp_initialize__aeabi_                  - Undefined Weak Reference
    __cxa_finalize                            - Undefined Weak Reference
    __rt_locale                               - Undefined Weak Reference
    __sigvec_lookup                           - Undefined Weak Reference
    _atexit_init                              - Undefined Weak Reference
    _call_atexit_fns                          - Undefined Weak Reference
    _clock_init                               - Undefined Weak Reference
    _fp_trap_init                             - Undefined Weak Reference
    _fp_trap_shutdown                         - Undefined Weak Reference
    _get_lc_collate                           - Undefined Weak Reference
    _get_lc_ctype                             - Undefined Weak Reference
    _get_lc_monetary                          - Undefined Weak Reference
    _get_lc_numeric                           - Undefined Weak Reference
    _get_lc_time                              - Undefined Weak Reference
    _getenv_init                              - Undefined Weak Reference
    _handle_redirection                       - Undefined Weak Reference
    _init_alloc                               - Undefined Weak Reference
    _init_user_alloc                          - Undefined Weak Reference
    _initio                                   - Undefined Weak Reference
    _mutex_acquire                            - Undefined Weak Reference
    _mutex_release                            - Undefined Weak Reference
    _printf_mbtowc                            - Undefined Weak Reference
    _printf_post_padding                      - Undefined Weak Reference
    _printf_pre_padding                       - Undefined Weak Reference
    _printf_truncate_signed                   - Undefined Weak Reference
    _printf_truncate_unsigned                 - Undefined Weak Reference
    _rand_init                                - Undefined Weak Reference
    _signal_finish                            - Undefined Weak Reference
    _signal_init                              - Undefined Weak Reference
    _terminate_alloc                          - Undefined Weak Reference
    _terminate_user_alloc                     - Undefined Weak Reference
    _terminateio                              - Undefined Weak Reference
    __Vectors_Size                           0x00000130   Number         0  startup_stm32f10x_hd.o ABSOLUTE
    __Vectors                                0x08000000   Data           4  startup_stm32f10x_hd.o(RESET)
    __Vectors_End                            0x08000130   Data           0  startup_stm32f10x_hd.o(RESET)
    __main                                   0x08000131   Thumb Code     8  __main.o(!!!main)
    __scatterload                            0x08000139   Thumb Code     0  __scatter.o(!!!scatter)
    __scatterload_rt2                        0x08000139   Thumb Code    44  __scatter.o(!!!scatter)
    __scatterload_rt2_thumb_only             0x08000139   Thumb Code     0  __scatter.o(!!!scatter)
    __scatterload_null                       0x08000147   Thumb Code     0  __scatter.o(!!!scatter)
    __scatterload_copy                       0x0800016d   Thumb Code    26  __scatter_copy.o(!!handler_copy)
    __scatterload_zeroinit                   0x08000189   Thumb Code    28  __scatter_zi.o(!!handler_zi)
    _printf_d                                0x080001a5   Thumb Code     0  _printf_d.o(.ARM.Collect$$_printf_percent$$00000009)
    _printf_percent                          0x080001a5   Thumb Code     0  _printf_percent.o(.ARM.Collect$$_printf_percent$$00000000)
    _printf_u                                0x080001ab   Thumb Code     0  _printf_u.o(.ARM.Collect$$_printf_percent$$0000000A)
    _printf_c                                0x080001b1   Thumb Code     0  _printf_c.o(.ARM.Collect$$_printf_percent$$00000013)
    _printf_s                                0x080001b7   Thumb Code     0  _printf_s.o(.ARM.Collect$$_printf_percent$$00000014)
    _printf_percent_end                      0x080001bd   Thumb Code     0  _printf_percent_end.o(.ARM.Collect$$_printf_percent$$00000017)
    __rt_lib_init                            0x080001c1   Thumb Code     0  libinit.o(.ARM.Collect$$libinit$$00000000)
    __rt_lib_init_alloca_1                   0x080001c3   Thumb Code     0  libinit2.o(.ARM.Collect$$libinit$$0000002E)
    __rt_lib_init_argv_1                     0x080001c3   Thumb Code     0  libinit2.o(.ARM.Collect$$libinit$$0000002C)
    __rt_lib_init_atexit_1                   0x080001c3   Thumb Code     0  libinit2.o(.ARM.Collect$$libinit$$0000001B)
    __rt_lib_init_clock_1                    0x080001c3   Thumb Code     0  libinit2.o(.ARM.Collect$$libinit$$00000021)
    __rt_lib_init_cpp_1                      0x080001c3   Thumb Code     0  libinit2.o(.ARM.Collect$$libinit$$00000032)
    __rt_lib_init_exceptions_1               0x080001c3   Thumb Code     0  libinit2.o(.ARM.Collect$$libinit$$00000030)
    __rt_lib_init_fp_1                       0x080001c3   Thumb Code     0  libinit2.o(.ARM.Collect$$libinit$$00000002)
    __rt_lib_init_fp_trap_1                  0x080001c3   Thumb Code     0  libinit2.o(.ARM.Collect$$libinit$$0000001F)
    __rt_lib_init_getenv_1                   0x080001c3   Thumb Code     0  libinit2.o(.ARM.Collect$$libinit$$00000023)
    __rt_lib_init_heap_1                     0x080001c3   Thumb Code     0  libinit2.o(.ARM.Collect$$libinit$$0000000A)
    __rt_lib_init_lc_collate_1               0x080001c3   Thumb Code     0  libinit2.o(.ARM.Collect$$libinit$$00000011)
    __rt_lib_init_lc_ctype_1                 0x080001c3   Thumb Code     0  libinit2.o(.ARM.Collect$$libinit$$00000013)
    __rt_lib_init_lc_monetary_1              0x080001c3   Thumb Code     0  libinit2.o(.ARM.Collect$$libinit$$00000015)
    __rt_lib_init_lc_numeric_1               0x080001c3   Thumb Code     0  libinit2.o(.ARM.Collect$$libinit$$00000017)
    __rt_lib_init_lc_time_1                  0x080001c3   Thumb Code     0  libinit2.o(.ARM.Collect$$libinit$$00000019)
    __rt_lib_init_preinit_1                  0x080001c3   Thumb Code     0  libinit2.o(.ARM.Collect$$libinit$$00000004)
    __rt_lib_init_rand_1                     0x080001c3   Thumb Code     0  libinit2.o(.ARM.Collect$$libinit$$0000000E)
    __rt_lib_init_return                     0x080001c3   Thumb Code     0  libinit2.o(.ARM.Collect$$libinit$$00000033)
    __rt_lib_init_signal_1                   0x080001c3   Thumb Code     0  libinit2.o(.ARM.Collect$$libinit$$0000001D)
    __rt_lib_init_stdio_1                    0x080001c3   Thumb Code     0  libinit2.o(.ARM.Collect$$libinit$$00000025)
    __rt_lib_init_user_alloc_1               0x080001c3   Thumb Code     0  libinit2.o(.ARM.Collect$$libinit$$0000000C)
    __rt_lib_shutdown                        0x080001c5   Thumb Code     0  libshutdown.o(.ARM.Collect$$libshutdown$$00000000)
    __rt_lib_shutdown_fp_trap_1              0x080001c7   Thumb Code     0  libshutdown2.o(.ARM.Collect$$libshutdown$$00000006)
    __rt_lib_shutdown_heap_1                 0x080001c7   Thumb Code     0  libshutdown2.o(.ARM.Collect$$libshutdown$$0000000E)
    __rt_lib_shutdown_return                 0x080001c7   Thumb Code     0  libshutdown2.o(.ARM.Collect$$libshutdown$$0000000F)
    __rt_lib_shutdown_signal_1               0x080001c7   Thumb Code     0  libshutdown2.o(.ARM.Collect$$libshutdown$$00000009)
    __rt_lib_shutdown_stdio_1                0x080001c7   Thumb Code     0  libshutdown2.o(.ARM.Collect$$libshutdown$$00000003)
    __rt_lib_shutdown_user_alloc_1           0x080001c7   Thumb Code     0  libshutdown2.o(.ARM.Collect$$libshutdown$$0000000B)
    __rt_entry                               0x080001c9   Thumb Code     0  __rtentry.o(.ARM.Collect$$rtentry$$00000000)
    __rt_entry_presh_1                       0x080001c9   Thumb Code     0  __rtentry2.o(.ARM.Collect$$rtentry$$00000002)
    __rt_entry_sh                            0x080001c9   Thumb Code     0  __rtentry4.o(.ARM.Collect$$rtentry$$00000004)
    __rt_entry_li                            0x080001cf   Thumb Code     0  __rtentry2.o(.ARM.Collect$$rtentry$$0000000A)
    __rt_entry_postsh_1                      0x080001cf   Thumb Code     0  __rtentry2.o(.ARM.Collect$$rtentry$$00000009)
    __rt_entry_main                          0x080001d3   Thumb Code     0  __rtentry2.o(.ARM.Collect$$rtentry$$0000000D)
    __rt_entry_postli_1                      0x080001d3   Thumb Code     0  __rtentry2.o(.ARM.Collect$$rtentry$$0000000C)
    __rt_exit                                0x080001db   Thumb Code     0  rtexit.o(.ARM.Collect$$rtexit$$00000000)
    __rt_exit_ls                             0x080001dd   Thumb Code     0  rtexit2.o(.ARM.Collect$$rtexit$$00000003)
    __rt_exit_prels_1                        0x080001dd   Thumb Code     0  rtexit2.o(.ARM.Collect$$rtexit$$00000002)
    __rt_exit_exit                           0x080001e1   Thumb Code     0  rtexit2.o(.ARM.Collect$$rtexit$$00000004)
    SVC_Handler                              0x080001e9   Thumb Code    32  port.o(.emb_text)
    __asm___6_port_c_39a90d8d__prvStartFirstTask 0x0800020d   Thumb Code    28  port.o(.emb_text)
    PendSV_Handler                           0x0800022d   Thumb Code    72  port.o(.emb_text)
    vPortGetIPSR                             0x08000279   Thumb Code     6  port.o(.emb_text)
    fire_auto_timer                          0x08000281   Thumb Code    50  main.o(.text)
    tx_task                                  0x080002b3   Thumb Code    68  main.o(.text)
    urgent_task                              0x080002f7   Thumb Code    66  main.o(.text)
    dht11_task                               0x08000339   Thumb Code    56  main.o(.text)
    fire_task                                0x08000371   Thumb Code    62  main.o(.text)
    start_task                               0x080003af   Thumb Code   164  main.o(.text)
    main                                     0x08000453   Thumb Code    64  main.o(.text)
    NMI_Handler                              0x0800056d   Thumb Code     2  stm32f10x_it.o(.text)
    HardFault_Handler                        0x0800056f   Thumb Code     2  stm32f10x_it.o(.text)
    MemManage_Handler                        0x08000571   Thumb Code     2  stm32f10x_it.o(.text)
    BusFault_Handler                         0x08000573   Thumb Code     2  stm32f10x_it.o(.text)
    UsageFault_Handler                       0x08000575   Thumb Code     2  stm32f10x_it.o(.text)
    DebugMon_Handler                         0x08000577   Thumb Code     2  stm32f10x_it.o(.text)
    SystemInit                               0x08000619   Thumb Code    64  system_stm32f10x.o(.text)
    SystemCoreClockUpdate                    0x08000659   Thumb Code    86  system_stm32f10x.o(.text)
    LED_Init                                 0x080006d1   Thumb Code    78  led.o(.text)
    fire_init                                0x08000729   Thumb Code    38  fire.o(.text)
    DHT11_Check                              0x08000755   Thumb Code   102  dht11.o(.text)
    DHT11_Rst                                0x080007bb   Thumb Code    56  dht11.o(.text)
    dht11_init                               0x080007f3   Thumb Code    46  dht11.o(.text)
    DHT11_Read_Bit                           0x08000821   Thumb Code    84  dht11.o(.text)
    DHT11_Read_Byte                          0x08000875   Thumb Code    26  dht11.o(.text)
    dht11_read_data                          0x0800088f   Thumb Code    84  dht11.o(.text)
    SysTick_Handler                          0x080008e9   Thumb Code    20  delay.o(.text)
    delay_init                               0x080008fd   Thumb Code    60  delay.o(.text)
    delay_us                                 0x08000939   Thumb Code    48  delay.o(.text)
    delay_ms                                 0x08000969   Thumb Code    50  delay.o(.text)
    delay_xms                                0x0800099b   Thumb Code    26  delay.o(.text)
    _sys_exit                                0x080009c1   Thumb Code     2  usart.o(.text)
    fputc                                    0x080009c3   Thumb Code    18  usart.o(.text)
    uart_init                                0x080009d5   Thumb Code   152  usart.o(.text)
    USART1_IRQHandler                        0x08000a6d   Thumb Code    88  usart.o(.text)
    Reset_Handler                            0x08000ad5   Thumb Code     8  startup_stm32f10x_hd.o(.text)
    ADC1_2_IRQHandler                        0x08000aef   Thumb Code     0  startup_stm32f10x_hd.o(.text)
    ADC3_IRQHandler                          0x08000aef   Thumb Code     0  startup_stm32f10x_hd.o(.text)
    CAN1_RX1_IRQHandler                      0x08000aef   Thumb Code     0  startup_stm32f10x_hd.o(.text)
    CAN1_SCE_IRQHandler                      0x08000aef   Thumb Code     0  startup_stm32f10x_hd.o(.text)
    DMA1_Channel1_IRQHandler                 0x08000aef   Thumb Code     0  startup_stm32f10x_hd.o(.text)
    DMA1_Channel2_IRQHandler                 0x08000aef   Thumb Code     0  startup_stm32f10x_hd.o(.text)
    DMA1_Channel3_IRQHandler                 0x08000aef   Thumb Code     0  startup_stm32f10x_hd.o(.text)
    DMA1_Channel4_IRQHandler                 0x08000aef   Thumb Code     0  startup_stm32f10x_hd.o(.text)
    DMA1_Channel5_IRQHandler                 0x08000aef   Thumb Code     0  startup_stm32f10x_hd.o(.text)
    DMA1_Channel6_IRQHandler                 0x08000aef   Thumb Code     0  startup_stm32f10x_hd.o(.text)
    DMA1_Channel7_IRQHandler                 0x08000aef   Thumb Code     0  startup_stm32f10x_hd.o(.text)
    DMA2_Channel1_IRQHandler                 0x08000aef   Thumb Code     0  startup_stm32f10x_hd.o(.text)
    DMA2_Channel2_IRQHandler                 0x08000aef   Thumb Code     0  startup_stm32f10x_hd.o(.text)
    DMA2_Channel3_IRQHandler                 0x08000aef   Thumb Code     0  startup_stm32f10x_hd.o(.text)
    DMA2_Channel4_5_IRQHandler               0x08000aef   Thumb Code     0  startup_stm32f10x_hd.o(.text)
    EXTI0_IRQHandler                         0x08000aef   Thumb Code     0  startup_stm32f10x_hd.o(.text)
    EXTI15_10_IRQHandler                     0x08000aef   Thumb Code     0  startup_stm32f10x_hd.o(.text)
    EXTI1_IRQHandler                         0x08000aef   Thumb Code     0  startup_stm32f10x_hd.o(.text)
    EXTI2_IRQHandler                         0x08000aef   Thumb Code     0  startup_stm32f10x_hd.o(.text)
    EXTI3_IRQHandler                         0x08000aef   Thumb Code     0  startup_stm32f10x_hd.o(.text)
    EXTI4_IRQHandler                         0x08000aef   Thumb Code     0  startup_stm32f10x_hd.o(.text)
    EXTI9_5_IRQHandler                       0x08000aef   Thumb Code     0  startup_stm32f10x_hd.o(.text)
    FLASH_IRQHandler                         0x08000aef   Thumb Code     0  startup_stm32f10x_hd.o(.text)
    FSMC_IRQHandler                          0x08000aef   Thumb Code     0  startup_stm32f10x_hd.o(.text)
    I2C1_ER_IRQHandler                       0x08000aef   Thumb Code     0  startup_stm32f10x_hd.o(.text)
    I2C1_EV_IRQHandler                       0x08000aef   Thumb Code     0  startup_stm32f10x_hd.o(.text)
    I2C2_ER_IRQHandler                       0x08000aef   Thumb Code     0  startup_stm32f10x_hd.o(.text)
    I2C2_EV_IRQHandler                       0x08000aef   Thumb Code     0  startup_stm32f10x_hd.o(.text)
    PVD_IRQHandler                           0x08000aef   Thumb Code     0  startup_stm32f10x_hd.o(.text)
    RCC_IRQHandler                           0x08000aef   Thumb Code     0  startup_stm32f10x_hd.o(.text)
    RTCAlarm_IRQHandler                      0x08000aef   Thumb Code     0  startup_stm32f10x_hd.o(.text)
    RTC_IRQHandler                           0x08000aef   Thumb Code     0  startup_stm32f10x_hd.o(.text)
    SDIO_IRQHandler                          0x08000aef   Thumb Code     0  startup_stm32f10x_hd.o(.text)
    SPI1_IRQHandler                          0x08000aef   Thumb Code     0  startup_stm32f10x_hd.o(.text)
    SPI2_IRQHandler                          0x08000aef   Thumb Code     0  startup_stm32f10x_hd.o(.text)
    SPI3_IRQHandler                          0x08000aef   Thumb Code     0  startup_stm32f10x_hd.o(.text)
    TAMPER_IRQHandler                        0x08000aef   Thumb Code     0  startup_stm32f10x_hd.o(.text)
    TIM1_BRK_IRQHandler                      0x08000aef   Thumb Code     0  startup_stm32f10x_hd.o(.text)
    TIM1_CC_IRQHandler                       0x08000aef   Thumb Code     0  startup_stm32f10x_hd.o(.text)
    TIM1_TRG_COM_IRQHandler                  0x08000aef   Thumb Code     0  startup_stm32f10x_hd.o(.text)
    TIM1_UP_IRQHandler                       0x08000aef   Thumb Code     0  startup_stm32f10x_hd.o(.text)
    TIM2_IRQHandler                          0x08000aef   Thumb Code     0  startup_stm32f10x_hd.o(.text)
    TIM3_IRQHandler                          0x08000aef   Thumb Code     0  startup_stm32f10x_hd.o(.text)
    TIM4_IRQHandler                          0x08000aef   Thumb Code     0  startup_stm32f10x_hd.o(.text)
    TIM5_IRQHandler                          0x08000aef   Thumb Code     0  startup_stm32f10x_hd.o(.text)
    TIM6_IRQHandler                          0x08000aef   Thumb Code     0  startup_stm32f10x_hd.o(.text)
    TIM7_IRQHandler                          0x08000aef   Thumb Code     0  startup_stm32f10x_hd.o(.text)
    TIM8_BRK_IRQHandler                      0x08000aef   Thumb Code     0  startup_stm32f10x_hd.o(.text)
    TIM8_CC_IRQHandler                       0x08000aef   Thumb Code     0  startup_stm32f10x_hd.o(.text)
    TIM8_TRG_COM_IRQHandler                  0x08000aef   Thumb Code     0  startup_stm32f10x_hd.o(.text)
    TIM8_UP_IRQHandler                       0x08000aef   Thumb Code     0  startup_stm32f10x_hd.o(.text)
    UART4_IRQHandler                         0x08000aef   Thumb Code     0  startup_stm32f10x_hd.o(.text)
    UART5_IRQHandler                         0x08000aef   Thumb Code     0  startup_stm32f10x_hd.o(.text)
    USART2_IRQHandler                        0x08000aef   Thumb Code     0  startup_stm32f10x_hd.o(.text)
    USART3_IRQHandler                        0x08000aef   Thumb Code     0  startup_stm32f10x_hd.o(.text)
    USBWakeUp_IRQHandler                     0x08000aef   Thumb Code     0  startup_stm32f10x_hd.o(.text)
    USB_HP_CAN1_TX_IRQHandler                0x08000aef   Thumb Code     0  startup_stm32f10x_hd.o(.text)
    USB_LP_CAN1_RX0_IRQHandler               0x08000aef   Thumb Code     0  startup_stm32f10x_hd.o(.text)
    WWDG_IRQHandler                          0x08000aef   Thumb Code     0  startup_stm32f10x_hd.o(.text)
    __user_initial_stackheap                 0x08000af1   Thumb Code     0  startup_stm32f10x_hd.o(.text)
    NVIC_PriorityGroupConfig                 0x08000b15   Thumb Code    10  misc.o(.text)
    NVIC_Init                                0x08000b1f   Thumb Code    94  misc.o(.text)
    NVIC_SetVectorTable                      0x08000b7d   Thumb Code    14  misc.o(.text)
    NVIC_SystemLPConfig                      0x08000b8b   Thumb Code    20  misc.o(.text)
    SysTick_CLKSourceConfig                  0x08000b9f   Thumb Code    24  misc.o(.text)
    GPIO_DeInit                              0x08000bc5   Thumb Code   152  stm32f10x_gpio.o(.text)
    GPIO_AFIODeInit                          0x08000c5d   Thumb Code    22  stm32f10x_gpio.o(.text)
    GPIO_Init                                0x08000c73   Thumb Code   156  stm32f10x_gpio.o(.text)
    GPIO_StructInit                          0x08000d0f   Thumb Code    16  stm32f10x_gpio.o(.text)
    GPIO_ReadInputDataBit                    0x08000d1f   Thumb Code    14  stm32f10x_gpio.o(.text)
    GPIO_ReadInputData                       0x08000d2d   Thumb Code     6  stm32f10x_gpio.o(.text)
    GPIO_ReadOutputDataBit                   0x08000d33   Thumb Code    14  stm32f10x_gpio.o(.text)
    GPIO_ReadOutputData                      0x08000d41   Thumb Code     6  stm32f10x_gpio.o(.text)
    GPIO_SetBits                             0x08000d47   Thumb Code     4  stm32f10x_gpio.o(.text)
    GPIO_ResetBits                           0x08000d4b   Thumb Code     4  stm32f10x_gpio.o(.text)
    GPIO_WriteBit                            0x08000d4f   Thumb Code    10  stm32f10x_gpio.o(.text)
    GPIO_Write                               0x08000d59   Thumb Code     4  stm32f10x_gpio.o(.text)
    GPIO_PinLockConfig                       0x08000d5d   Thumb Code    16  stm32f10x_gpio.o(.text)
    GPIO_EventOutputConfig                   0x08000d6d   Thumb Code    22  stm32f10x_gpio.o(.text)
    GPIO_EventOutputCmd                      0x08000d83   Thumb Code     6  stm32f10x_gpio.o(.text)
    GPIO_PinRemapConfig                      0x08000d89   Thumb Code    82  stm32f10x_gpio.o(.text)
    GPIO_EXTILineConfig                      0x08000ddb   Thumb Code    34  stm32f10x_gpio.o(.text)
    GPIO_ETH_MediaInterfaceConfig            0x08000dfd   Thumb Code     8  stm32f10x_gpio.o(.text)
    RCC_DeInit                               0x08000e29   Thumb Code    50  stm32f10x_rcc.o(.text)
    RCC_HSEConfig                            0x08000e5b   Thumb Code    48  stm32f10x_rcc.o(.text)
    RCC_GetFlagStatus                        0x08000e8b   Thumb Code    42  stm32f10x_rcc.o(.text)
    RCC_WaitForHSEStartUp                    0x08000eb5   Thumb Code    44  stm32f10x_rcc.o(.text)
    RCC_AdjustHSICalibrationValue            0x08000ee1   Thumb Code    16  stm32f10x_rcc.o(.text)
    RCC_HSICmd                               0x08000ef1   Thumb Code     6  stm32f10x_rcc.o(.text)
    RCC_PLLConfig                            0x08000ef7   Thumb Code    16  stm32f10x_rcc.o(.text)
    RCC_PLLCmd                               0x08000f07   Thumb Code     6  stm32f10x_rcc.o(.text)
    RCC_SYSCLKConfig                         0x08000f0d   Thumb Code    14  stm32f10x_rcc.o(.text)
    RCC_GetSYSCLKSource                      0x08000f1b   Thumb Code    10  stm32f10x_rcc.o(.text)
    RCC_HCLKConfig                           0x08000f25   Thumb Code    14  stm32f10x_rcc.o(.text)
    RCC_PCLK1Config                          0x08000f33   Thumb Code    14  stm32f10x_rcc.o(.text)
    RCC_PCLK2Config                          0x08000f41   Thumb Code    16  stm32f10x_rcc.o(.text)
    RCC_ITConfig                             0x08000f51   Thumb Code    18  stm32f10x_rcc.o(.text)
    RCC_USBCLKConfig                         0x08000f63   Thumb Code     8  stm32f10x_rcc.o(.text)
    RCC_ADCCLKConfig                         0x08000f6b   Thumb Code    14  stm32f10x_rcc.o(.text)
    RCC_LSEConfig                            0x08000f79   Thumb Code    28  stm32f10x_rcc.o(.text)
    RCC_LSICmd                               0x08000f95   Thumb Code     6  stm32f10x_rcc.o(.text)
    RCC_RTCCLKConfig                         0x08000f9b   Thumb Code    10  stm32f10x_rcc.o(.text)
    RCC_RTCCLKCmd                            0x08000fa5   Thumb Code     8  stm32f10x_rcc.o(.text)
    RCC_GetClocksFreq                        0x08000fad   Thumb Code   132  stm32f10x_rcc.o(.text)
    RCC_AHBPeriphClockCmd                    0x08001031   Thumb Code    18  stm32f10x_rcc.o(.text)
    RCC_APB2PeriphClockCmd                   0x08001043   Thumb Code    18  stm32f10x_rcc.o(.text)
    RCC_APB1PeriphClockCmd                   0x08001055   Thumb Code    18  stm32f10x_rcc.o(.text)
    RCC_APB2PeriphResetCmd                   0x08001067   Thumb Code    18  stm32f10x_rcc.o(.text)
    RCC_APB1PeriphResetCmd                   0x08001079   Thumb Code    18  stm32f10x_rcc.o(.text)
    RCC_BackupResetCmd                       0x0800108b   Thumb Code     8  stm32f10x_rcc.o(.text)
    RCC_ClockSecuritySystemCmd               0x08001093   Thumb Code     6  stm32f10x_rcc.o(.text)
    RCC_MCOConfig                            0x08001099   Thumb Code     6  stm32f10x_rcc.o(.text)
    RCC_ClearFlag                            0x0800109f   Thumb Code    12  stm32f10x_rcc.o(.text)
    RCC_GetITStatus                          0x080010ab   Thumb Code    16  stm32f10x_rcc.o(.text)
    RCC_ClearITPendingBit                    0x080010bb   Thumb Code     6  stm32f10x_rcc.o(.text)
    USART_DeInit                             0x080010e1   Thumb Code    96  stm32f10x_usart.o(.text)
    USART_Init                               0x08001141   Thumb Code   166  stm32f10x_usart.o(.text)
    USART_StructInit                         0x080011e7   Thumb Code    22  stm32f10x_usart.o(.text)
    USART_ClockInit                          0x080011fd   Thumb Code    30  stm32f10x_usart.o(.text)
    USART_ClockStructInit                    0x0800121b   Thumb Code    12  stm32f10x_usart.o(.text)
    USART_Cmd                                0x08001227   Thumb Code    20  stm32f10x_usart.o(.text)
    USART_ITConfig                           0x0800123b   Thumb Code    48  stm32f10x_usart.o(.text)
    USART_DMACmd                             0x0800126b   Thumb Code    16  stm32f10x_usart.o(.text)
    USART_SetAddress                         0x0800127b   Thumb Code    16  stm32f10x_usart.o(.text)
    USART_WakeUpConfig                       0x0800128b   Thumb Code    16  stm32f10x_usart.o(.text)
    USART_ReceiverWakeUpCmd                  0x0800129b   Thumb Code    20  stm32f10x_usart.o(.text)
    USART_LINBreakDetectLengthConfig         0x080012af   Thumb Code    16  stm32f10x_usart.o(.text)
    USART_LINCmd                             0x080012bf   Thumb Code    20  stm32f10x_usart.o(.text)
    USART_SendData                           0x080012d3   Thumb Code     8  stm32f10x_usart.o(.text)
    USART_ReceiveData                        0x080012db   Thumb Code     8  stm32f10x_usart.o(.text)
    USART_SendBreak                          0x080012e3   Thumb Code    10  stm32f10x_usart.o(.text)
    USART_SetGuardTime                       0x080012ed   Thumb Code    16  stm32f10x_usart.o(.text)
    USART_SetPrescaler                       0x080012fd   Thumb Code    16  stm32f10x_usart.o(.text)
    USART_SmartCardCmd                       0x0800130d   Thumb Code    20  stm32f10x_usart.o(.text)
    USART_SmartCardNACKCmd                   0x08001321   Thumb Code    20  stm32f10x_usart.o(.text)
    USART_HalfDuplexCmd                      0x08001335   Thumb Code    20  stm32f10x_usart.o(.text)
    USART_OverSampling8Cmd                   0x08001349   Thumb Code    20  stm32f10x_usart.o(.text)
    USART_OneBitMethodCmd                    0x0800135d   Thumb Code    20  stm32f10x_usart.o(.text)
    USART_IrDAConfig                         0x08001371   Thumb Code    16  stm32f10x_usart.o(.text)
    USART_IrDACmd                            0x08001381   Thumb Code    20  stm32f10x_usart.o(.text)
    USART_GetFlagStatus                      0x08001395   Thumb Code    14  stm32f10x_usart.o(.text)
    USART_ClearFlag                          0x080013a3   Thumb Code     6  stm32f10x_usart.o(.text)
    USART_GetITStatus                        0x080013a9   Thumb Code    62  stm32f10x_usart.o(.text)
    USART_ClearITPendingBit                  0x080013e7   Thumb Code    12  stm32f10x_usart.o(.text)
    vListInitialise                          0x08001409   Thumb Code    22  list.o(.text)
    vListInitialiseItem                      0x0800141f   Thumb Code     6  list.o(.text)
    vListInsertEnd                           0x08001425   Thumb Code    24  list.o(.text)
    vListInsert                              0x0800143d   Thumb Code    48  list.o(.text)
    uxListRemove                             0x0800146d   Thumb Code    36  list.o(.text)
    xQueueGenericReset                       0x08001491   Thumb Code   128  queue.o(.text)
    xQueueGenericCreate                      0x08001511   Thumb Code    82  queue.o(.text)
    xQueueGenericSend                        0x080016b1   Thumb Code   350  queue.o(.text)
    xQueueCreateMutex                        0x0800180f   Thumb Code    36  queue.o(.text)
    xQueueGiveMutexRecursive                 0x08001833   Thumb Code    98  queue.o(.text)
    xQueueGenericReceive                     0x080018bb   Thumb Code   356  queue.o(.text)
    xQueueTakeMutexRecursive                 0x08001a1f   Thumb Code    68  queue.o(.text)
    xQueueCreateCountingSemaphore            0x08001a63   Thumb Code    62  queue.o(.text)
    xQueueGenericSendFromISR                 0x08001aa1   Thumb Code   200  queue.o(.text)
    xQueueGiveFromISR                        0x08001b69   Thumb Code   172  queue.o(.text)
    xQueueReceiveFromISR                     0x08001c15   Thumb Code   150  queue.o(.text)
    xQueuePeekFromISR                        0x08001cab   Thumb Code   114  queue.o(.text)
    uxQueueMessagesWaiting                   0x08001d1d   Thumb Code    36  queue.o(.text)
    uxQueueSpacesAvailable                   0x08001d41   Thumb Code    40  queue.o(.text)
    uxQueueMessagesWaitingFromISR            0x08001d69   Thumb Code    26  queue.o(.text)
    vQueueUnregisterQueue                    0x08001d83   Thumb Code    36  queue.o(.text)
    vQueueDelete                             0x08001da7   Thumb Code    38  queue.o(.text)
    uxQueueGetQueueNumber                    0x08001dcd   Thumb Code     4  queue.o(.text)
    vQueueSetQueueNumber                     0x08001dd1   Thumb Code     4  queue.o(.text)
    ucQueueGetQueueType                      0x08001dd5   Thumb Code     6  queue.o(.text)
    xQueueIsQueueEmptyFromISR                0x08001ddb   Thumb Code    34  queue.o(.text)
    xQueueIsQueueFullFromISR                 0x08001dfd   Thumb Code    38  queue.o(.text)
    vQueueAddToRegistry                      0x08001e23   Thumb Code    32  queue.o(.text)
    pcQueueGetName                           0x08001e43   Thumb Code    34  queue.o(.text)
    vQueueWaitForMessageRestricted           0x08001e65   Thumb Code    68  queue.o(.text)
    xQueueCreateSet                          0x08001ea9   Thumb Code     8  queue.o(.text)
    xQueueAddToSet                           0x08001eb1   Thumb Code    34  queue.o(.text)
    xQueueRemoveFromSet                      0x08001ed3   Thumb Code    34  queue.o(.text)
    xQueueSelectFromSet                      0x08001ef5   Thumb Code    18  queue.o(.text)
    xQueueSelectFromSetFromISR               0x08001f07   Thumb Code    18  queue.o(.text)
    xTaskCreate                              0x08001ffd   Thumb Code    86  tasks.o(.text)
    vTaskDelete                              0x08002053   Thumb Code   154  tasks.o(.text)
    xTaskIncrementTick                       0x080020ed   Thumb Code   186  tasks.o(.text)
    xTaskResumeAll                           0x080021a7   Thumb Code   182  tasks.o(.text)
    vTaskSuspendAll                          0x080022c3   Thumb Code    10  tasks.o(.text)
    vTaskDelayUntil                          0x080022cd   Thumb Code   180  tasks.o(.text)
    vTaskDelay                               0x08002381   Thumb Code    66  tasks.o(.text)
    eTaskGetState                            0x080023c3   Thumb Code    94  tasks.o(.text)
    uxTaskPriorityGet                        0x08002421   Thumb Code    24  tasks.o(.text)
    uxTaskPriorityGetFromISR                 0x08002439   Thumb Code    40  tasks.o(.text)
    vTaskPrioritySet                         0x08002461   Thumb Code   184  tasks.o(.text)
    vTaskSwitchContext                       0x08002519   Thumb Code    84  tasks.o(.text)
    vTaskSuspend                             0x0800256d   Thumb Code   156  tasks.o(.text)
    vTaskResume                              0x08002639   Thumb Code   116  tasks.o(.text)
    xTaskResumeFromISR                       0x080026ad   Thumb Code   126  tasks.o(.text)
    vTaskStartScheduler                      0x08002749   Thumb Code   130  tasks.o(.text)
    vTaskEndScheduler                        0x080027cb   Thumb Code    24  tasks.o(.text)
    xTaskGetTickCount                        0x080027e3   Thumb Code     6  tasks.o(.text)
    xTaskGetTickCountFromISR                 0x080027e9   Thumb Code    12  tasks.o(.text)
    uxTaskGetNumberOfTasks                   0x080027f5   Thumb Code     6  tasks.o(.text)
    pcTaskGetName                            0x080027fb   Thumb Code    38  tasks.o(.text)
    vTaskGetInfo                             0x08002821   Thumb Code   126  tasks.o(.text)
    uxTaskGetSystemState                     0x080028f3   Thumb Code   156  tasks.o(.text)
    vTaskPlaceOnEventList                    0x0800298f   Thumb Code    46  tasks.o(.text)
    vTaskPlaceOnUnorderedEventList           0x080029bd   Thumb Code    78  tasks.o(.text)
    vTaskPlaceOnEventListRestricted          0x08002a0b   Thumb Code    54  tasks.o(.text)
    xTaskRemoveFromEventList                 0x08002a41   Thumb Code   106  tasks.o(.text)
    xTaskRemoveFromUnorderedEventList        0x08002aab   Thumb Code   116  tasks.o(.text)
    vTaskSetTimeOutState                     0x08002b1f   Thumb Code    34  tasks.o(.text)
    xTaskCheckForTimeOut                     0x08002b41   Thumb Code   114  tasks.o(.text)
    vTaskMissedYield                         0x08002bb3   Thumb Code     8  tasks.o(.text)
    uxTaskGetTaskNumber                      0x08002bbb   Thumb Code     8  tasks.o(.text)
    vTaskSetTaskNumber                       0x08002bc3   Thumb Code     8  tasks.o(.text)
    xTaskGetCurrentTaskHandle                0x08002bcb   Thumb Code     6  tasks.o(.text)
    xTaskGetSchedulerState                   0x08002bd1   Thumb Code    22  tasks.o(.text)
    vTaskPriorityInherit                     0x08002be7   Thumb Code   124  tasks.o(.text)
    xTaskPriorityDisinherit                  0x08002c63   Thumb Code   144  tasks.o(.text)
    vTaskList                                0x08002cf3   Thumb Code   188  tasks.o(.text)
    uxTaskResetEventItemValue                0x08002daf   Thumb Code    20  tasks.o(.text)
    pvTaskIncrementMutexHeldCount            0x08002dc3   Thumb Code    18  tasks.o(.text)
    ulTaskNotifyTake                         0x08002dd5   Thumb Code    96  tasks.o(.text)
    xTaskNotifyWait                          0x08002e35   Thumb Code   128  tasks.o(.text)
    xTaskGenericNotify                       0x08002eb5   Thumb Code   190  tasks.o(.text)
    xTaskGenericNotifyFromISR                0x08002f73   Thumb Code   256  tasks.o(.text)
    vTaskNotifyGiveFromISR                   0x08003073   Thumb Code   168  tasks.o(.text)
    xTaskNotifyStateClear                    0x0800311b   Thumb Code    44  tasks.o(.text)
    xTimerGenericCommand                     0x080032bd   Thumb Code    98  timers.o(.text)
    xTimerCreateTimerTask                    0x08003443   Thumb Code    58  timers.o(.text)
    xTimerCreate                             0x0800347d   Thumb Code    72  timers.o(.text)
    xTimerGetTimerDaemonTaskHandle           0x080034c5   Thumb Code    24  timers.o(.text)
    xTimerGetPeriod                          0x080034dd   Thumb Code    22  timers.o(.text)
    xTimerGetExpiryTime                      0x080034f3   Thumb Code    22  timers.o(.text)
    pcTimerGetName                           0x08003509   Thumb Code    22  timers.o(.text)
    xTimerIsTimerActive                      0x0800351f   Thumb Code    40  timers.o(.text)
    pvTimerGetTimerID                        0x08003547   Thumb Code    32  timers.o(.text)
    vTimerSetTimerID                         0x08003567   Thumb Code    34  timers.o(.text)
    xTimerPendFunctionCallFromISR            0x08003589   Thumb Code    34  timers.o(.text)
    xTimerPendFunctionCall                   0x080035ab   Thumb Code    60  timers.o(.text)
    pxPortInitialiseStack                    0x080037c3   Thumb Code    32  port.o(.text)
    vPortSetupTimerInterrupt                 0x080037e3   Thumb Code    26  port.o(.text)
    xPortStartScheduler                      0x080037fd   Thumb Code   108  port.o(.text)
    vPortEndScheduler                        0x08003869   Thumb Code    24  port.o(.text)
    vPortEnterCritical                       0x08003881   Thumb Code    52  port.o(.text)
    vPortExitCritical                        0x080038b5   Thumb Code    34  port.o(.text)
    xPortSysTickHandler                      0x080038d7   Thumb Code    40  port.o(.text)
    vPortValidateInterruptPriority           0x080038ff   Thumb Code    72  port.o(.text)
    pvPortMalloc                             0x080039e1   Thumb Code   214  heap_4.o(.text)
    vPortFree                                0x08003ab7   Thumb Code    96  heap_4.o(.text)
    xPortGetFreeHeapSize                     0x08003b17   Thumb Code     8  heap_4.o(.text)
    xPortGetMinimumEverFreeHeapSize          0x08003b1f   Thumb Code     8  heap_4.o(.text)
    vPortInitialiseBlocks                    0x08003b27   Thumb Code     2  heap_4.o(.text)
    __use_no_semihosting                     0x08003bad   Thumb Code     2  use_no_semi_2.o(.text)
    __2printf                                0x08003bb1   Thumb Code    20  noretval__2printf.o(.text)
    __2sprintf                               0x08003bc9   Thumb Code    34  noretval__2sprintf.o(.text)
    __printf                                 0x08003bf1   Thumb Code   104  __printf.o(.text)
    _printf_str                              0x08003c59   Thumb Code    82  _printf_str.o(.text)
    _printf_int_dec                          0x08003cad   Thumb Code   104  _printf_dec.o(.text)
    strcpy                                   0x08003d25   Thumb Code    72  strcpy.o(.text)
    strlen                                   0x08003d6d   Thumb Code    62  strlen.o(.text)
    __aeabi_memcpy                           0x08003dab   Thumb Code     0  rt_memcpy_v6.o(.text)
    __rt_memcpy                              0x08003dab   Thumb Code   138  rt_memcpy_v6.o(.text)
    _memcpy_lastbytes                        0x08003e11   Thumb Code     0  rt_memcpy_v6.o(.text)
    __aeabi_memset                           0x08003e35   Thumb Code    16  aeabi_memset.o(.text)
    __use_two_region_memory                  0x08003e45   Thumb Code     2  heapauxi.o(.text)
    __rt_heap_escrow$2region                 0x08003e47   Thumb Code     2  heapauxi.o(.text)
    __rt_heap_expand$2region                 0x08003e49   Thumb Code     2  heapauxi.o(.text)
    __I$use$semihosting                      0x08003e4b   Thumb Code     0  use_no_semi.o(.text)
    __use_no_semihosting_swi                 0x08003e4b   Thumb Code     2  use_no_semi.o(.text)
    _printf_int_common                       0x08003e4d   Thumb Code   178  _printf_intcommon.o(.text)
    _printf_char_common                      0x08003f0b   Thumb Code    32  _printf_char_common.o(.text)
    _sputc                                   0x08003f31   Thumb Code    10  _sputc.o(.text)
    _printf_cs_common                        0x08003f3b   Thumb Code    20  _printf_char.o(.text)
    _printf_char                             0x08003f4f   Thumb Code    16  _printf_char.o(.text)
    _printf_string                           0x08003f5f   Thumb Code     8  _printf_char.o(.text)
    _printf_char_file                        0x08003f69   Thumb Code    32  _printf_char_file.o(.text)
    __aeabi_memcpy4                          0x08003f8d   Thumb Code     0  rt_memcpy_w.o(.text)
    __aeabi_memcpy8                          0x08003f8d   Thumb Code     0  rt_memcpy_w.o(.text)
    __rt_memcpy_w                            0x08003f8d   Thumb Code   100  rt_memcpy_w.o(.text)
    _memcpy_lastbytes_aligned                0x08003fd5   Thumb Code     0  rt_memcpy_w.o(.text)
    __aeabi_memclr                           0x08003ff1   Thumb Code     0  rt_memclr.o(.text)
    __rt_memclr                              0x08003ff1   Thumb Code    68  rt_memclr.o(.text)
    _memset                                  0x08003ff5   Thumb Code     0  rt_memclr.o(.text)
    ferror                                   0x08004035   Thumb Code     8  ferror.o(.text)
    __aeabi_memclr4                          0x0800403d   Thumb Code     0  rt_memclr_w.o(.text)
    __aeabi_memclr8                          0x0800403d   Thumb Code     0  rt_memclr_w.o(.text)
    __rt_memclr_w                            0x0800403d   Thumb Code    78  rt_memclr_w.o(.text)
    _memset_w                                0x08004041   Thumb Code     0  rt_memclr_w.o(.text)
    __user_setup_stackheap                   0x0800408b   Thumb Code    74  sys_stackheap_outer.o(.text)
    exit                                     0x080040d5   Thumb Code    12  exit.o(.text)
    __user_libspace                          0x080040e1   Thumb Code     8  libspace.o(.text)
    __user_perproc_libspace                  0x080040e1   Thumb Code     0  libspace.o(.text)
    __user_perthread_libspace                0x080040e1   Thumb Code     0  libspace.o(.text)
    Region$$Table$$Base                      0x080040e8   Number         0  anon$$obj.o(Region$$Table)
    Region$$Table$$Limit                     0x08004108   Number         0  anon$$obj.o(Region$$Table)
    StartTask_Handler                        0x20000000   Data           4  main.o(.data)
    FIRETask_Handler                         0x20000004   Data           4  main.o(.data)
    DHT11Task_Handler                        0x20000008   Data           4  main.o(.data)
    URGENTTask_Handler                       0x2000000c   Data           4  main.o(.data)
    TXTask_Handler                           0x20000010   Data           4  main.o(.data)
    Fire_Message_Qeue                        0x20000014   Data           4  main.o(.data)
    Dht_Message_Qeue                         0x20000018   Data           4  main.o(.data)
    FIRE_AutoReload_TimerHandle              0x2000001c   Data           4  main.o(.data)
    SystemCoreClock                          0x20000020   Data           4  system_stm32f10x.o(.data)
    AHBPrescTable                            0x20000024   Data          16  system_stm32f10x.o(.data)
    USART_RX_STA                             0x20000038   Data           2  usart.o(.data)
    __stdout                                 0x2000003c   Data           4  usart.o(.data)
    pxCurrentTCB                             0x20000054   Data           4  tasks.o(.data)
    USART_RX_BUF                             0x200000c8   Data         200  usart.o(.bss)
    xQueueRegistry                           0x20000190   Data          64  queue.o(.bss)
    __libspace_start                         0x200054dc   Data          96  libspace.o(.bss)
    __temporary_stack_top$libspace           0x2000553c   Data           0  libspace.o(.bss)



==============================================================================

Memory Map of the image

  Image Entry point : 0x08000131

  Load Region LR_IROM1 (Base: 0x08000000, Size: 0x000041d0, Max: 0x00040000, ABSOLUTE)

    Execution Region ER_IROM1 (Base: 0x08000000, Size: 0x00004108, Max: 0x00040000, ABSOLUTE)

    Base Addr    Size         Type   Attr      Idx    E Section Name        Object

    0x08000000   0x00000130   Data   RO          332    RESET               startup_stm32f10x_hd.o
    0x08000130   0x00000008   Code   RO          844  * !!!main             c_w.l(__main.o)
    0x08000138   0x00000034   Code   RO         1021    !!!scatter          c_w.l(__scatter.o)
    0x0800016c   0x0000001a   Code   RO         1023    !!handler_copy      c_w.l(__scatter_copy.o)
    0x08000186   0x00000002   PAD
    0x08000188   0x0000001c   Code   RO         1025    !!handler_zi        c_w.l(__scatter_zi.o)
    0x080001a4   0x00000000   Code   RO          833    .ARM.Collect$$_printf_percent$$00000000  c_w.l(_printf_percent.o)
    0x080001a4   0x00000006   Code   RO          831    .ARM.Collect$$_printf_percent$$00000009  c_w.l(_printf_d.o)
    0x080001aa   0x00000006   Code   RO          832    .ARM.Collect$$_printf_percent$$0000000A  c_w.l(_printf_u.o)
    0x080001b0   0x00000006   Code   RO          829    .ARM.Collect$$_printf_percent$$00000013  c_w.l(_printf_c.o)
    0x080001b6   0x00000006   Code   RO          830    .ARM.Collect$$_printf_percent$$00000014  c_w.l(_printf_s.o)
    0x080001bc   0x00000004   Code   RO          859    .ARM.Collect$$_printf_percent$$00000017  c_w.l(_printf_percent_end.o)
    0x080001c0   0x00000002   Code   RO          896    .ARM.Collect$$libinit$$00000000  c_w.l(libinit.o)
    0x080001c2   0x00000000   Code   RO          903    .ARM.Collect$$libinit$$00000002  c_w.l(libinit2.o)
    0x080001c2   0x00000000   Code   RO          905    .ARM.Collect$$libinit$$00000004  c_w.l(libinit2.o)
    0x080001c2   0x00000000   Code   RO          908    .ARM.Collect$$libinit$$0000000A  c_w.l(libinit2.o)
    0x080001c2   0x00000000   Code   RO          910    .ARM.Collect$$libinit$$0000000C  c_w.l(libinit2.o)
    0x080001c2   0x00000000   Code   RO          912    .ARM.Collect$$libinit$$0000000E  c_w.l(libinit2.o)
    0x080001c2   0x00000000   Code   RO          915    .ARM.Collect$$libinit$$00000011  c_w.l(libinit2.o)
    0x080001c2   0x00000000   Code   RO          917    .ARM.Collect$$libinit$$00000013  c_w.l(libinit2.o)
    0x080001c2   0x00000000   Code   RO          919    .ARM.Collect$$libinit$$00000015  c_w.l(libinit2.o)
    0x080001c2   0x00000000   Code   RO          921    .ARM.Collect$$libinit$$00000017  c_w.l(libinit2.o)
    0x080001c2   0x00000000   Code   RO          923    .ARM.Collect$$libinit$$00000019  c_w.l(libinit2.o)
    0x080001c2   0x00000000   Code   RO          925    .ARM.Collect$$libinit$$0000001B  c_w.l(libinit2.o)
    0x080001c2   0x00000000   Code   RO          927    .ARM.Collect$$libinit$$0000001D  c_w.l(libinit2.o)
    0x080001c2   0x00000000   Code   RO          929    .ARM.Collect$$libinit$$0000001F  c_w.l(libinit2.o)
    0x080001c2   0x00000000   Code   RO          931    .ARM.Collect$$libinit$$00000021  c_w.l(libinit2.o)
    0x080001c2   0x00000000   Code   RO          933    .ARM.Collect$$libinit$$00000023  c_w.l(libinit2.o)
    0x080001c2   0x00000000   Code   RO          935    .ARM.Collect$$libinit$$00000025  c_w.l(libinit2.o)
    0x080001c2   0x00000000   Code   RO          939    .ARM.Collect$$libinit$$0000002C  c_w.l(libinit2.o)
    0x080001c2   0x00000000   Code   RO          941    .ARM.Collect$$libinit$$0000002E  c_w.l(libinit2.o)
    0x080001c2   0x00000000   Code   RO          943    .ARM.Collect$$libinit$$00000030  c_w.l(libinit2.o)
    0x080001c2   0x00000000   Code   RO          945    .ARM.Collect$$libinit$$00000032  c_w.l(libinit2.o)
    0x080001c2   0x00000002   Code   RO          946    .ARM.Collect$$libinit$$00000033  c_w.l(libinit2.o)
    0x080001c4   0x00000002   Code   RO          964    .ARM.Collect$$libshutdown$$00000000  c_w.l(libshutdown.o)
    0x080001c6   0x00000000   Code   RO          975    .ARM.Collect$$libshutdown$$00000003  c_w.l(libshutdown2.o)
    0x080001c6   0x00000000   Code   RO          978    .ARM.Collect$$libshutdown$$00000006  c_w.l(libshutdown2.o)
    0x080001c6   0x00000000   Code   RO          981    .ARM.Collect$$libshutdown$$00000009  c_w.l(libshutdown2.o)
    0x080001c6   0x00000000   Code   RO          983    .ARM.Collect$$libshutdown$$0000000B  c_w.l(libshutdown2.o)
    0x080001c6   0x00000000   Code   RO          986    .ARM.Collect$$libshutdown$$0000000E  c_w.l(libshutdown2.o)
    0x080001c6   0x00000002   Code   RO          987    .ARM.Collect$$libshutdown$$0000000F  c_w.l(libshutdown2.o)
    0x080001c8   0x00000000   Code   RO          848    .ARM.Collect$$rtentry$$00000000  c_w.l(__rtentry.o)
    0x080001c8   0x00000000   Code   RO          865    .ARM.Collect$$rtentry$$00000002  c_w.l(__rtentry2.o)
    0x080001c8   0x00000006   Code   RO          877    .ARM.Collect$$rtentry$$00000004  c_w.l(__rtentry4.o)
    0x080001ce   0x00000000   Code   RO          867    .ARM.Collect$$rtentry$$00000009  c_w.l(__rtentry2.o)
    0x080001ce   0x00000004   Code   RO          868    .ARM.Collect$$rtentry$$0000000A  c_w.l(__rtentry2.o)
    0x080001d2   0x00000000   Code   RO          870    .ARM.Collect$$rtentry$$0000000C  c_w.l(__rtentry2.o)
    0x080001d2   0x00000008   Code   RO          871    .ARM.Collect$$rtentry$$0000000D  c_w.l(__rtentry2.o)
    0x080001da   0x00000002   Code   RO          900    .ARM.Collect$$rtexit$$00000000  c_w.l(rtexit.o)
    0x080001dc   0x00000000   Code   RO          948    .ARM.Collect$$rtexit$$00000002  c_w.l(rtexit2.o)
    0x080001dc   0x00000004   Code   RO          949    .ARM.Collect$$rtexit$$00000003  c_w.l(rtexit2.o)
    0x080001e0   0x00000006   Code   RO          950    .ARM.Collect$$rtexit$$00000004  c_w.l(rtexit2.o)
    0x080001e6   0x00000002   PAD
    0x080001e8   0x00000096   Code   RO          745    .emb_text           port.o
    0x0800027e   0x00000002   PAD
    0x08000280   0x000002ec   Code   RO            1    .text               main.o
    0x0800056c   0x0000000c   Code   RO          163    .text               stm32f10x_it.o
    0x08000578   0x00000158   Code   RO          204    .text               system_stm32f10x.o
    0x080006d0   0x00000058   Code   RO          222    .text               led.o
    0x08000728   0x0000002c   Code   RO          234    .text               fire.o
    0x08000754   0x00000194   Code   RO          246    .text               dht11.o
    0x080008e8   0x000000d8   Code   RO          259    .text               delay.o
    0x080009c0   0x00000114   Code   RO          290    .text               usart.o
    0x08000ad4   0x00000040   Code   RO          333    .text               startup_stm32f10x_hd.o
    0x08000b14   0x000000b0   Code   RO          337    .text               misc.o
    0x08000bc4   0x00000264   Code   RO          482    .text               stm32f10x_gpio.o
    0x08000e28   0x000002b8   Code   RO          530    .text               stm32f10x_rcc.o
    0x080010e0   0x00000328   Code   RO          594    .text               stm32f10x_usart.o
    0x08001408   0x00000088   Code   RO          667    .text               list.o
    0x08001490   0x00000aac   Code   RO          679    .text               queue.o
    0x08001f3c   0x0000134c   Code   RO          698    .text               tasks.o
    0x08003288   0x00000518   Code   RO          730    .text               timers.o
    0x080037a0   0x000001f8   Code   RO          746    .text               port.o
    0x08003998   0x00000214   Code   RO          776    .text               heap_4.o
    0x08003bac   0x00000002   Code   RO          793    .text               c_w.l(use_no_semi_2.o)
    0x08003bae   0x00000002   PAD
    0x08003bb0   0x00000018   Code   RO          799    .text               c_w.l(noretval__2printf.o)
    0x08003bc8   0x00000028   Code   RO          801    .text               c_w.l(noretval__2sprintf.o)
    0x08003bf0   0x00000068   Code   RO          803    .text               c_w.l(__printf.o)
    0x08003c58   0x00000052   Code   RO          805    .text               c_w.l(_printf_str.o)
    0x08003caa   0x00000002   PAD
    0x08003cac   0x00000078   Code   RO          807    .text               c_w.l(_printf_dec.o)
    0x08003d24   0x00000048   Code   RO          834    .text               c_w.l(strcpy.o)
    0x08003d6c   0x0000003e   Code   RO          836    .text               c_w.l(strlen.o)
    0x08003daa   0x0000008a   Code   RO          838    .text               c_w.l(rt_memcpy_v6.o)
    0x08003e34   0x00000010   Code   RO          840    .text               c_w.l(aeabi_memset.o)
    0x08003e44   0x00000006   Code   RO          842    .text               c_w.l(heapauxi.o)
    0x08003e4a   0x00000002   Code   RO          846    .text               c_w.l(use_no_semi.o)
    0x08003e4c   0x000000b2   Code   RO          849    .text               c_w.l(_printf_intcommon.o)
    0x08003efe   0x00000002   PAD
    0x08003f00   0x00000030   Code   RO          851    .text               c_w.l(_printf_char_common.o)
    0x08003f30   0x0000000a   Code   RO          853    .text               c_w.l(_sputc.o)
    0x08003f3a   0x0000002c   Code   RO          855    .text               c_w.l(_printf_char.o)
    0x08003f66   0x00000002   PAD
    0x08003f68   0x00000024   Code   RO          857    .text               c_w.l(_printf_char_file.o)
    0x08003f8c   0x00000064   Code   RO          860    .text               c_w.l(rt_memcpy_w.o)
    0x08003ff0   0x00000044   Code   RO          862    .text               c_w.l(rt_memclr.o)
    0x08004034   0x00000008   Code   RO          881    .text               c_w.l(ferror.o)
    0x0800403c   0x0000004e   Code   RO          885    .text               c_w.l(rt_memclr_w.o)
    0x0800408a   0x0000004a   Code   RO          887    .text               c_w.l(sys_stackheap_outer.o)
    0x080040d4   0x0000000c   Code   RO          889    .text               c_w.l(exit.o)
    0x080040e0   0x00000008   Code   RO          897    .text               c_w.l(libspace.o)
    0x080040e8   0x00000020   Data   RO         1019    Region$$Table       anon$$obj.o


    Execution Region RW_IRAM1 (Base: 0x20000000, Size: 0x00005b40, Max: 0x0000c000, ABSOLUTE)

    Base Addr    Size         Type   Attr      Idx    E Section Name        Object

    0x20000000   0x00000020   Data   RW            2    .data               main.o
    0x20000020   0x00000014   Data   RW          205    .data               system_stm32f10x.o
    0x20000034   0x00000004   Data   RW          260    .data               delay.o
    0x20000038   0x00000002   Data   RW          292    .data               usart.o
    0x2000003a   0x00000002   PAD
    0x2000003c   0x00000004   Data   RW          293    .data               usart.o
    0x20000040   0x00000014   Data   RW          531    .data               stm32f10x_rcc.o
    0x20000054   0x0000003c   Data   RW          700    .data               tasks.o
    0x20000090   0x00000014   Data   RW          732    .data               timers.o
    0x200000a4   0x0000000c   Data   RW          747    .data               port.o
    0x200000b0   0x00000018   Data   RW          778    .data               heap_4.o
    0x200000c8   0x000000c8   Zero   RW          291    .bss                usart.o
    0x20000190   0x00000040   Zero   RW          680    .bss                queue.o
    0x200001d0   0x000002e4   Zero   RW          699    .bss                tasks.o
    0x200004b4   0x00000028   Zero   RW          731    .bss                timers.o
    0x200004dc   0x00005000   Zero   RW          777    .bss                heap_4.o
    0x200054dc   0x00000060   Zero   RW          898    .bss                c_w.l(libspace.o)
    0x2000553c   0x00000004   PAD
    0x20005540   0x00000200   Zero   RW          331    HEAP                startup_stm32f10x_hd.o
    0x20005740   0x00000400   Zero   RW          330    STACK               startup_stm32f10x_hd.o


==============================================================================

Image component sizes


      Code (inc. data)   RO Data    RW Data    ZI Data      Debug   Object Name

       216         12          0          4          0       1449   delay.o
       404          6          0          0          0       2080   dht11.o
         0          0          0          0          0       9328   event_groups.o
        44          6          0          0          0        468   fire.o
       532         66          0         24      20480       3068   heap_4.o
        88         10          0          0          0        503   led.o
       136          0          0          0          0       1614   list.o
       748        218          0         32          0     249331   main.o
       176         14          0          0          0       1657   misc.o
       654         94          0         12          0       7581   port.o
      2732         52          0          0         64      13628   queue.o
        64         26        304          0       1536        784   startup_stm32f10x_hd.o
       612         36          0          0          0       4933   stm32f10x_gpio.o
        12          0          0          0          0        879   stm32f10x_it.o
       696         32          0         20          0       8032   stm32f10x_rcc.o
       808         22          0          0          0       7256   stm32f10x_usart.o
         0          0          0          0          0         32   sys.o
       344         34          0         20          0       1695   system_stm32f10x.o
      4940        180          0         60        740      28882   tasks.o
      1304        128          0         20         40       7540   timers.o
       276         16          0          6        200       3090   usart.o

    ----------------------------------------------------------------------
     14788        952        336        200      23060     353830   Object Totals
         0          0         32          0          0          0   (incl. Generated)
         2          0          0          2          0          0   (incl. Padding)

    ----------------------------------------------------------------------

      Code (inc. data)   RO Data    RW Data    ZI Data      Debug   Library Member Name

         8          0          0          0          0         68   __main.o
       104          0          0          0          0         84   __printf.o
         0          0          0          0          0          0   __rtentry.o
        12          0          0          0          0          0   __rtentry2.o
         6          0          0          0          0          0   __rtentry4.o
        52          8          0          0          0          0   __scatter.o
        26          0          0          0          0          0   __scatter_copy.o
        28          0          0          0          0          0   __scatter_zi.o
         6          0          0          0          0          0   _printf_c.o
        44          0          0          0          0        108   _printf_char.o
        48          6          0          0          0         96   _printf_char_common.o
        36          4          0          0          0         80   _printf_char_file.o
         6          0          0          0          0          0   _printf_d.o
       120         16          0          0          0         92   _printf_dec.o
       178          0          0          0          0         88   _printf_intcommon.o
         0          0          0          0          0          0   _printf_percent.o
         4          0          0          0          0          0   _printf_percent_end.o
         6          0          0          0          0          0   _printf_s.o
        82          0          0          0          0         80   _printf_str.o
         6          0          0          0          0          0   _printf_u.o
        10          0          0          0          0         68   _sputc.o
        16          0          0          0          0         68   aeabi_memset.o
        12          0          0          0          0         72   exit.o
         8          0          0          0          0         68   ferror.o
         6          0          0          0          0        152   heapauxi.o
         2          0          0          0          0          0   libinit.o
         2          0          0          0          0          0   libinit2.o
         2          0          0          0          0          0   libshutdown.o
         2          0          0          0          0          0   libshutdown2.o
         8          4          0          0         96         68   libspace.o
        24          4          0          0          0         84   noretval__2printf.o
        40          6          0          0          0         84   noretval__2sprintf.o
        68          0          0          0          0         68   rt_memclr.o
        78          0          0          0          0         80   rt_memclr_w.o
       138          0          0          0          0         68   rt_memcpy_v6.o
       100          0          0          0          0         80   rt_memcpy_w.o
         2          0          0          0          0          0   rtexit.o
        10          0          0          0          0          0   rtexit2.o
        72          0          0          0          0         80   strcpy.o
        62          0          0          0          0         76   strlen.o
        74          0          0          0          0         80   sys_stackheap_outer.o
         2          0          0          0          0         68   use_no_semi.o
         2          0          0          0          0         68   use_no_semi_2.o

    ----------------------------------------------------------------------
      1524         48          0          0        100       2028   Library Totals
        12          0          0          0          4          0   (incl. Padding)

    ----------------------------------------------------------------------

      Code (inc. data)   RO Data    RW Data    ZI Data      Debug   Library Name

      1512         48          0          0         96       2028   c_w.l

    ----------------------------------------------------------------------
      1524         48          0          0        100       2028   Library Totals

    ----------------------------------------------------------------------

==============================================================================


      Code (inc. data)   RO Data    RW Data    ZI Data      Debug   

     16312       1000        336        200      23160     352526   Grand Totals
     16312       1000        336        200      23160     352526   ELF Image Totals
     16312       1000        336        200          0          0   ROM Totals

==============================================================================

    Total RO  Size (Code + RO Data)                16648 (  16.26kB)
    Total RW  Size (RW Data + ZI Data)             23360 (  22.81kB)
    Total ROM Size (Code + RO Data + RW Data)      16848 (  16.45kB)

==============================================================================

